:020000040800F2
:10000000A8700020F1010008E7430008D53A000875
:10001000E54300080D1400086150000800000000CE
:10002000000000000000000000000000BD4C0008BF
:100030005314000800000000ED430008BF4C000806
:100040000B0200080B0200080B0200080B0200085C
:100050000B0200080B0200080B0200080B0200084C
:100060000B0200080B0200080B0200080B0200083C
:100070000B0200080B0200080B0200080B0200082C
:10008000111400081D1400080B0200080B020008E0
:100090000B0200080B0200080B0200080B0200080C
:1000A0000B0200080B0200080B0200080B020008FC
:1000B0000B0200080B0200080B0200080B020008EC
:1000C0000B0200080B0200080B0200080B020008DC
:1000D0000B0200080B020008555000080B02000834
:1000E0000B0200080B0200080B0200080B020008BC
:1000F0000B0200080B0200080B0200080B020008AC
:100100000B0200080B0200080B0200080B0200089B
:100110000B0200080B0200080B0200080B0200088B
:100120000B0200080B0200080B0200080B0200087B
:1001300000F002F800F04DF80AA090E8000C8244AC
:100140008344AAF10107DA4501D100F042F8AFF289
:10015000090EBAE80F0013F0010F18BFFB1A43F0A5
:1001600001031847F48D0000148E0000103A24BFDC
:1001700078C878C1FAD8520724BF30C830C144BF0C
:1001800004680C607047000000230024002500264E
:10019000103A28BF78C1FBD8520728BF30C148BFEA
:1001A0000B607047642900F0C780782900F0008157
:1001B000632900F0AA83002070471FB59DE8030063
:1001C00000F088FE00F0C4FB1FBD10B500F029FC54
:1001D00010BD00F059FC1146FFF7EFFF06F0A6FD39
:1001E00000F048FE03B4FFF7F0FF03BC00F0E4FFAB
:1001F0000948804709480047FEE7FEE7FEE7FEE7BB
:10020000FEE7FEE7FEE7FEE7FEE7FEE704480549F6
:10021000054A064B704700002B4D000831010008CD
:10022000C8500020A8700020B8600020B8600020EE
:10023000B2F120030AD5C2F1200320FA02F001FA3C
:1002400003F321FA02F140EA0300704721FA03F0B8
:100250004FF00001704700000FB4044910B503AA25
:10026000029800F05FFB10BC5DF814FBC04F00204B
:100270000FB41CB5074B06AA7B446946009005984D
:1002800000F021FB0020694600F030FB1CBC5DF84B
:1002900014FB00007106000070B504468569006813
:1002A000C10601D5302600E02026C00707D070BD6A
:1002B000D4E9012130469047206A401C20626D1E1F
:1002C000F6D570BD70B5044685690078C00707D1C2
:1002D00070BDD4E9012120209047206A401C206293
:1002E0006D1EF6D570BD70B50C460546012A05D0C9
:1002F0002878800600D5EA69002302E0012305E0A2
:100300005B1C934202D2E05C0028F9D1A869E61890
:10031000C01AA861286A184428622846FFF7BCFF63
:1003200004E0D5E9012114F8010B9047B442F8D359
:100330002846FFF7C7FF70BD2DE9F04106460024AF
:1003400010687529314616A510D0AFF3008000283B
:1003500002DA404213A507E031688A0701D512A5E9
:1003600002E0490704D511A5012401E0AFF30080A4
:1003700000210A2206F1240709E0B0FBF2FCB0FBE1
:10038000F2F302FB1C00303078541846491C002858
:10039000F3D123462A463046BDE8F04100F035BA95
:1003A000000000002D0000002B00000020000000D5
:1003B00070B504460D4621461068AFF300802188D1
:1003C000090502D50F4A7A4402E00E4A7A440E32F9
:1003D000002104F1240305E000F00F060009965DFA
:1003E0005E54491C0028F7D120780023000704D56B
:1003F000702D02D009B1022311322046BDE87040B1
:1004000000F003BA558B00002DE9F05F89460446E1
:100410004FF0000ADFF824B1FB44C0F820A02046CA
:10042000E168884700287DD0252806D0D4E901213D
:100430009047206A401C2062F1E700255F46204675
:10044000E16888472028064607DB312E05D2B81917
:1004500010F8200C08B10543F1E7A80701D525F0F5
:100460000405C4F81CA00027C4F818A02A2E09D03F
:10047000304604F023FE38B304EB8708303EC8F85A
:10048000186019E059F8041B204604EB87029161BB
:10049000E1688847012F064618D1E069002820DA74
:1004A00025F020051DE0D8F8180000EB800006EBD1
:1004B00040003038C8F818002046E16888470646F2
:1004C00004F0FCFD0028EED1012F0AD02E2E08D119
:1004D0002046E16888477F1C0646022F45F020052C
:1004E000C4DBA069002803DA404245F00105A061A1
:1004F000E80701D025F01005A6B1A6F141001928A2
:1005000002D8203645F400654A463146204625602B
:100510004D46FFF747FE60B1012807D0ED1D25F0DD
:10052000070000E007E000F1080978E705F1040999
:1005300075E730467AE7206ABDE8F09F2B8B000014
:1005400030B505460B462A4613F8014B12F8010B4D
:1005500008B1A042F8D01CB1002802D06D1CF1E710
:10056000284630BD40EA0103024630B59B0710D152
:100570004FF0013400E008C208C91D1B9D4315EA75
:10058000C41FF8D013F0FF0102F8011B0DD01B0AA5
:10059000F8E711F8013B002B02F8013B05D011F8F8
:1005A000013B002B02F8013BF3D130BD10B5431CD9
:1005B00002E010F8011B71B18107FAD14FF001324E
:1005C00002C88C1A8C4314EAC211F9D0C01A0A0668
:1005D00003D0C01E10BDC01A10BD0A0401D0801E79
:1005E00010BD0902FCD0401E10BD421E12F8013F92
:1005F000002BFBD111F8013B002B02F8013BF9D194
:100600007047032A40F2308010F0030C00F0158090
:1006100011F8013BBCF1020F624498BF11F801CB05
:1006200000F8013B38BF11F8013BA2F1040298BF6A
:1006300000F801CB38BF00F8013B11F0030300F0D4
:100640002580083AC0F0088051F8043B083A51F878
:1006500004CBA0E80810F5E7121D5CBF51F8043B7D
:1006600040F8043BAFF30080D20724BF11F8013BF0
:1006700011F801CB48BF11F8012B24BF00F8013B52
:1006800000F801CB48BF00F8012B704710B5203AA5
:10069000C0F00B80B1E81850203AA0E81850B1E83B
:1006A0001850A0E81850BFF4F5AF5FEA027C24BFF1
:1006B000B1E81850A0E8185044BF18C918C0BDE8E8
:1006C00010405FEA827C24BF51F8043B40F8043BB1
:1006D00008BF7047D20728BF31F8023B48BF11F866
:1006E000012B28BF20F8023B48BF00F8012B7047C0
:1006F0004FF000020429C0F0128010F0030C00F04B
:100700001B80CCF1040CBCF1020F18BF00F8012BC8
:10071000A8BF20F8022BA1EB0C0100F00DB85FEA96
:10072000C17C24BF00F8012B00F8012B48BF00F862
:10073000012B70474FF0000200B5134694469646D1
:10074000203922BFA0E80C50A0E80C50B1F12001E4
:10075000BFF4F7AF090728BFA0E80C5048BF0CC092
:100760005DF804EB890028BF40F8042B08BF7047F0
:1007700048BF20F8022B11F0804F18BF00F8012B62
:10078000704700004FF0013C50F8042B51F8043B37
:100790009A4221D1A2EB0C03934313EACC1317D155
:1007A00050F8042B51F8043B9A4215D1A2EB0C03EC
:1007B000934313EACC130BD150F8042B51F8043BAC
:1007C0009A4209D1A2EB0C03934313EACC13DBD07A
:1007D0004FF00000704700BFD01A01BAB1FA81F1A2
:1007E00001F0180122FA01F0CB40C1F12001DBB287
:1007F000C0B2C01A2CFA01F3D11A914311EAC31105
:10080000E6D170477047704770472DE9F0470D46B5
:1008100099469246044600F124080168880604D5EA
:10082000E06921F01001216000E00120A84201DD13
:10083000471B00E00027A1697A1902EB0900081A9A
:10084000A0612078C00602D42046FFF725FD0026CF
:1008500008E0D4E901211AF806009047206A401CFC
:10086000761C20624E45F4DB2078C0060AD520466F
:10087000FFF712FD06E0D4E9012130209047206AFD
:10088000401C2062381EA7F10107F4DC07E0D4E920
:10089000012118F805009047206A401C2062281E9C
:1008A000A5F10105F3DC2046FFF70CFD20780006DA
:1008B00002D50220BDE8F0870120FBE701694A1C50
:1008C00002610878704700B58FB0CDE90131002191
:1008D000059105497944CDE9031011466846FFF7B3
:1008E00093FD0FB000BD0000E5FFFFFF0A6802F8AE
:1008F000010B0A60704710B5436913B1AFF3008074
:1009000001E0FFF7F0FC012010BD127800F1240196
:100910000A7000224A700122EDE711684FF0FF32A1
:10092000E9E70000074B70B50D467B44FFF7CBFFAE
:100930000446284600F008F810B14FF0FF3070BDB3
:10094000204670BD57600000007B00F080007047BB
:1009500010B542485421FFF7EDFE41485421FFF7FE
:10096000E9FE40485421FFF7E5FE3F493B483C4A39
:100970003F4B08603D490A603A491960531C0365C2
:10098000481C1065012008653B48344A39A1784469
:1009900000F0D4F920B9384878440A3800F073FAE6
:1009A00037482F4A35A1784400F0C8F920B93448B7
:1009B00078440A3800F067FA32482A4A2FA178446E
:1009C00000F0BCF920B92F4878440A3800F05BFAEF
:1009D00040232248DC000021224600F08CF920B19F
:1009E00025487844543800F04EFA1D4822464023EA
:1009F000002100F080F920B121487844543800F0FB
:100A000042FA184822461023002100F074F9002809
:100A100006D01C487844BDE81040563800F033BA80
:100A200010BD104870B5006D20F001040B4800F0B7
:100A3000FBF90B4800F0F8F90A4800F0F5F909E075
:100A4000206D20F00105204600F0EEF9204600F070
:100A500040F82C46002CF3D170BD00006C4F0020F4
:100A6000C04F0020145000204C00002050000020F7
:100A7000540000207200000076850000770000001E
:100A80006585000055850000754600F003FAAE4606
:100A900005006946534620F00700854618B020B58A
:100AA000FFF7B4FBBDE820404FF000064FF0000711
:100AB0004FF000084FF0000B21F00701AC46ACE806
:100AC000C009ACE8C009ACE8C009ACE8C0098D4673
:100AD000704770B50446051F00F0E0F90068002C6F
:100AE00014BF446870BD002C18BFAC423CBF204608
:100AF0006468F8D301680A18AA4218BF456003D198
:100B00002A6805461144016028684119A1421CBFAA
:100B10006C6070BD6168696021680844286070BDC0
:100B20002DE9F04705460C46C86820F4201040F433
:100B30008000C860800602D5084600F0FCFAE06834
:100B400041F282014FF0FF390140022903D02046D3
:100B500000F09AFAB5E000F42041B1F5004F0FD152
:100B6000C00306D56168E06A884200D80846606024
:100B700006E02069E0626060606904F0B2FAA0619A
:100B8000A0680022EEB200280DDAE1688B050AD4D5
:100B9000C043A06041F490302260E0606068411C76
:100BA00061600670A5E0E0689046226040F4005065
:100BB000E060206968BB606904F099FA012704F1DC
:100BC0002405A0B1A08910F4407F08D0E06900F0AE
:100BD000B0F9206118B1E06840F4006016E0E76108
:100BE0002561E06820F4407040F480600EE0E06928
:100BF00000F09FF900282061F1D0E06840F4006027
:100C000010F4407FE06002D140F48070E060206921
:100C10006060E06825696FF0010AC1051FD5616851
:100C2000E06A884200D80846411B04D02246284684
:100C300000F034FAF0BBE068010203D5E562C4E9D4
:100C4000015854E0691CE1626160E16940F4803060
:100C5000491EC4E9021030462E70BDE8F08701023B
:100C600002D500F480320AE06068411C61600670C1
:100C7000E0680A2E40F48030E06006D00022E16A8D
:100C80006068814203D90B4602E00122F7E7034680
:100C9000A7895B1B7F0503D4E7699F4200DDE2B1B2
:100CA000814200D80146E5620F1AC4E90158002BC1
:100CB00009DD00E005E022461946284600F0EEF97D
:100CC00008B14846C9E747B1A069E5626560C01B45
:100CD000A061E06840F01000E060E068000208D524
:100CE0006168A069E562491B08446560A0615046DF
:100CF000B3E73046B1E770B5C468A50713D0650205
:100D000011D4B2F5807F09D0B2F5007F06D0B2F5DC
:100D1000806F08D1012300F1240106E05D1E6FF011
:100D20007F46B54201D3012070BD0161C3614160BE
:100D300024F470611143C160002070BD2DE9F041C1
:100D40000C4607461646104600F06EF82078611CE7
:100D500061280AD0722802D077283CD102E0012510
:100D6000002405E00225042402E0082448F20205DC
:100D700011F8010B2B2806D0622809D011F8010CBC
:100D800074280AD00BE045F0030544F00204EFE7B5
:100D900045F0040544F00104EAE744F01004384645
:100DA000214604F0B1F9411C15D000213161716078
:100DB0004FF40071F560F1617061200704D5304691
:100DC0000222002100F0E4F8306D40F001003065AF
:100DD0003046BDE8F0810020FBE72DE9F0410D46EB
:100DE0000646104C206DC10704D0410804D020F005
:100DF0000104F7E722460EE0542000F09AF80700BD
:100E00000ED0206D47F0010108435421206538467B
:100E1000FFF790FC3A4629463046BDE8F0418DE7A1
:100E20000020D6E76C4F00202DE9F04704464FF034
:100E300000094FF0FF37C568D4E90486A80707D03A
:100E4000204600F055F9304604F03FF9002802DA58
:100E50003846BDE8F087280502D54046FFF739FE41
:100E60004C212046FFF766FC206D20F00100206534
:100E70004846EEE710B50446AFF300802046BDE8D3
:100E80001040FFF7AFB910B500F07CF9BDE8104095
:100E900000F072B900487047685000200048704761
:100EA00070500020704770477047704738B504464F
:100EB0000A4600206946AFF30080002808BF38BD0D
:100EC00002460099204600F084F9012038BD012037
:100ED00000F0D3B9F8B5AFF30080054600200C460A
:100EE000102000BF0646A819A0420DD93246694617
:100EF0000020AFF30080070008BF00F0BEF90098A3
:100F0000A04218BF0546C419FFF7C8FF0560074691
:100F1000F01D20F007004619284600F053F9B442AE
:100F200008BFF8BDA21B31463868BDE8F84000F0A4
:100F300050B970B50646FFF7B1FF056806F10B0022
:100F400020F00704B4429CBF002070BD2B466A68A5
:100F5000BAB11068A04210D304F1080188423CBF26
:100F60005068586007D35168101941601168091B17
:100F7000016058601460101D70BD13465268002A4D
:100F8000E7D121462846FFF791FF0028DED170BD4A
:100F90002DE9F041044616460D464769007B80075F
:100FA0002ED0384604F0A3F850BB3EB3012E02D039
:100FB000022E25D104E0204600F025F905441DE06D
:100FC000384604F08EF8E168002841F01001E16035
:100FD00005DA204600F058F80120BDE8F081C90389
:100FE0000BD56268E16A914200D81146A2691144AA
:100FF0002269891A814200DD08460544002D01DA84
:101000000220EAE7E16A6068E268814206D2910361
:10101000E06203D522F4003141F01002A6690027F6
:10102000AE4213DCE16A814201D90B4600E003467F
:1010300003EB060C2369ACEB030CAC4506DD8142E7
:1010400001D98C4600E084469C4505D1A760276005
:1010500042F02000A5620DE0AD1BE669AE1B8142A7
:10106000A66000D90846C01A281A20605819606086
:1010700022F0200003490840E060002084F8487016
:10108000ABE70000BFCFD7FFC16821F4001141F0EA
:101090008001C16000218160016070472DE9F04747
:1010A000814614460E464FF0FF383248D5685769DE
:1010B000054209D03846A16904F054F8002811DB34
:1010C0002C48C0430540E5602B4632464946384629
:1010D00004F04BF8A16920F00042B21A1144002834
:1010E000A16103D02046FFF7CFFF4046BDE8F0875F
:1010F00070B504460569C06A6168884200D8084630
:10110000E16821F42011E160C90312D5A84208D09A
:101110002246411B2846FFF7C1FF10B14FF0FF30B8
:1011200070BD0020E562C4E90150E06820F4803021
:10113000E060002070BD10B50446C06820F02000BB
:10114000E060A16AA06988420DD02046FFF7D0FF79
:10115000E06820F4405040F01000E060A06AA06118
:101160002069E062606044F24001E0688843E0602A
:1011700010BD000010000200002801D000F01CB8D3
:101180007047000010B5014602A000F05DF8012094
:1011900010BD000053494752545245443A2052650D
:1011A0006469726563743A2063616E2774206F709E
:1011B000656E3A200000000001491820ABBEFEE732
:1011C0002600020000210160C0E9011070471020D4
:1011D0007047034640688C46002818BF88423CBFD1
:1011E00003464068F8D318681844884207D00CF1C9
:1011F000030020F00700001D411A521A0146081D85
:101200000A60FFF766BC10B50146C268900703D0BC
:10121000900607D5886A0AE000F03EF801210160D7
:10122000881E10BD8B69486818440B69C01A91F874
:1012300048301BB191F84910401A10BD1103FCD57C
:101240000028FADD401E10BD70B505460C460A2088
:1012500000E06D1C00F018F835B128780028F8D1AE
:1012600002E0641C00F010F814B120780028F8D1D6
:10127000BDE870400A2000F007B810B500F010F883
:10128000BDE81040FFF778BF08B569468DF800004B
:101290000320ABBE08BD704700487047685000206F
:1012A00010B5012805D0002103A0FFF7CDFF0120D4
:1012B00010BD09A1F8E7000053494752544D454D70
:1012C0003A204F7574206F662068656170206D65E7
:1012D0006D6F7279000000003A2048656170206DE2
:1012E000656D6F727920636F7272757074656400DA
:1012F0002DE9FF4117460E468046002400F1F00517
:1013000013E0102231466846FFF77BF9414630462C
:1013100002F024FD2946304603F0A3FE1022694660
:101320002846FFF76EF910341036BC42E9D3BDE809
:10133000FF8170B51546044602F028FF294604F1E6
:10134000F000BDE870401022FFF75BB9F0B5002453
:10135000002304EB800601EB840503EB860CEF5CB5
:1013600012F80CC087EA0C07EF545B1CDBB2042BAD
:10137000F3D3641CE4B2042CEAD3F0BD0146014867
:1013800001F060BE4031002010B5044801F06CFE51
:10139000042801D0012010BD002010BD40310020E4
:1013A00010B500F00BF8012801D0012010BDBDE8F8
:1013B0001040014801F06EBE4031002008B5012008
:1013C0008DF800009DF8000008BD000038B500242D
:1013D000009313460A460146034801F011FF00B18D
:1013E0000124204638BD00004031002038B50024DB
:1013F000009313460A460146034801F0EDFF00B191
:101400000124204638BD000040310020FEE70000E6
:10141000014800F0B9BA000008320020014800F08D
:10142000B3BA00004C32002030B590F8405001248F
:10143000AC40C56B6C60046863604368102B036844
:1014400003D099600068C26030BD9A600068C160D6
:1014500030BD704772B6FEE7002200F001B8000010
:1014600030B50E4B054601205C7A012C15D8587A10
:1014700000241C54587A03EB800045605D7A03F128
:1014800008002A54587A421C5A72303008703A20A8
:1014900048702F208870CC70002030BD604F002035
:1014A00006490020C8610648016941F00401016154
:1014B000016941F04001016170470000284F0020A0
:1014C000002002402DE9F047DFF89C80D8F820107A
:1014D0004CF250390143CFB2C1F30726C1F307459F
:1014E0000C0E484600F02AF900283BD11F49C8617C
:1014F00000F05AFC002835D1D8F8102042F0100234
:10150000C8F81020FF2F07D01948018839430180FF
:10151000484600F013F9F8B9FF2E08D01448801C93
:10152000018831430180484600F008F9A0B9FF2D39
:1015300008D00F48001D018829430180484600F06B
:10154000FDF848B9FF2C07D00948801D01882143C8
:101550000180484600F0F2F8D8F8102022F010027E
:10156000C8F81020BDE8F08700200240284F002076
:1015700008F8FF1F2DE9F047DFF89C80D8F820100D
:101580004CF250398143CFB2C1F30726C1F307456E
:101590000C0E484600F0D2F800283BD11F49C86124
:1015A00000F002FC002835D1D8F8102042F01002DB
:1015B000C8F81020FF2F07D0194801883940018052
:1015C000484600F0BBF8F8B9FF2E08D01448801C3C
:1015D000018831400180484600F0B0F8A0B9FF2DE5
:1015E00008D00F48001D018829400180484600F0BE
:1015F000A5F848B9FF2C07D00948801D0188214073
:101600000180484600F09AF8D8F8102022F0100225
:10161000C8F81020BDE8F08700200240284F0020C5
:1016200008F8FF1F0449A520C96901F00201022939
:1016300000D10020704700000020024070B506462F
:101640004CF25035284600F079F8002820D1114995
:10165000C861114C206940F020002061206940F0F1
:1016600040002061284600F069F8216921F020013E
:10167000216100280CD1206940F01000206107484A
:101680000680284600F05AF8216921F010012161F6
:1016900070BD0000284F00200020024000F8FF1F0E
:1016A000064A0021D16106490A6942F002020A6134
:1016B0004861086940F0400008617047284F0020E9
:1016C00000200240044B0022DA61044A136943F00F
:1016D0000103136101807047284F00200020024061
:1016E00014480022C168CB06134904D5CA6942F0E8
:1016F0000202CA611022C3685B0705D5CB6943F0BB
:101700000103CB6142F00402C369DB0707D0CB6958
:1017100043F00403CB61C16921F00101C161A2F56D
:101720008071013901D0C2607047C16921F00101A7
:10173000C161704700200240284F002070B5054667
:1017400000F0ECFD0646114C09E0681C07D025B1FD
:1017500000F0E4FD801BA84201D9032070BDE068C1
:10176000C007F2D1E068800601D52020E060E06883
:10177000C00605D4E069C00702D1E068400703D580
:10178000FFF7AEFF012070BD002070BD00200240B9
:1017900010B590F821100022022905D004218163A0
:1017A00080F82020012010BD01680B6823F00E0393
:1017B0000B6001680B6823F001030B6090F8403068
:1017C000C46B012101FA03F3636080F8211080F8F3
:1017D0002020104610BD00002DE9F05F90F8211088
:1017E0000024022903D004218163012485E00168DB
:1017F0000A6822F00E020A6001680A6822F00102FB
:101800000A603F4E3E4FB215DFF8F4C0DFF8F090AB
:10181000DFF8ECA0DFF8E8B0DFF8E4E00168783F3B
:1018200013011502ACF1640CA9F15009AAF13C0AAC
:10183000ABF1280BAEF1140E4FF48018B14227D94A
:10184000B9420ED0614512D049451DD0514518D03E
:10185000594518D0714501D1424615E0294EB14293
:1018600001D1012210E0274E1436B14201D11022DD
:101870000AE0244E2836B14206D0224A3C32914238
:1018800001D11A4600E02A461E49091F0A602BE0D2
:10189000B94213D0614517D0494522D051451DD0DA
:1018A00059451DD0714501D142461AE0B14202D1DD
:1018B0004FF0807215E0134EB14201D1012210E0C9
:1018C000104E1436B14201D110220AE00D4E2836D6
:1018D000B14206D00B4A3C32914201D11A4600E097
:1018E0002A46074980394A60012180F821100021E9
:1018F00080F82010416B01B188472046BDE8F09F79
:10190000800002400804024010B5D0B101680A68A6
:1019100022F001020A600268002111600268516031
:10192000026891600268D160144C02681423A242DC
:1019300009D2134C2244B2FBF3F292000264114A22
:101940000AE0012010BD0D4C64422244B2FBF3F2C8
:1019500092000264094A083AC26390F840300122BA
:101960009A40C36B5A608162C162016341638163C3
:1019700080F8211080F82010002010BD08040240DB
:10198000F8FFFDBF000002402DE9F05FC16B0A685F
:1019900001680B68046C4FF0040808FA04F8844DE1
:1019A000844E854FDFF814C2DFF81492DFF814A2DA
:1019B000DFF814B2DFF814E218EA020F65D05FEA2C
:1019C000437862D50A68920603D40A6822F00402BA
:1019D0000A60DFF8F0814FF48062016808F11408B2
:1019E00013011402414524D9A9420DD0B1420FD0B0
:1019F000B9421AD0614515D0494515D0514501D19C
:101A0000120312E0594501D104220EE0714501D1C3
:101A100040220AE06D4D1435A94206D06B4A2832A7
:101A2000914201D11A4600E022466749091F0A6027
:101A300029E0A94213D0B14215D0B94220D0614566
:101A40001BD049451BD0514502D14FF4800217E00D
:101A5000414502D14FF0806212E0594501D1042284
:101A60000EE0714501D140220AE0584D1435A942DB
:101A700006D0564A2832914201D11A4600E0224649
:101A80004B4908394A60C16A71E04FF0020808FA10
:101A900004F818EA020F70D05FEA83786DD50A68FF
:101AA000920606D40A6822F00A020A60012180F830
:101AB0002110DFF810814FF40072016808F114085A
:101AC00013011402414524D9A9420DD0B1420FD0CF
:101AD000B9421AD0614515D0494515D0514501D1BB
:101AE000120312E0594501D102220EE0714501D1E5
:101AF00020220AE0354D1435A94206D0334A283257
:101B0000914201D11A4600E022462F49091F0A607E
:101B100029E0A94213D0B14215D0B94220D0614585
:101B20001BD049451BD0514502D14FF4001217E09C
:101B3000414502D14FF0007212E0594501D1022215
:101B40000EE0714501D120220AE0204D1435A94252
:101B500006D01E4A2832914201D11A4600E02246A0
:101B6000134908394A60002180F82010816A002951
:101B70001CD0BDE8F05F0847FFE70825A5401542E7
:101B800014D01A0712D50A6822F00E020A6090F8E3
:101B90004020C36B012101FA02F25A60816380F890
:101BA0002110002180F82010016BE0E7BDE8F09FD4
:101BB000080002401C000240300002404400024085
:101BC000580002406C000240080402401C0402401D
:101BD00030B560B11A4B026814219A4209D2194BF0
:101BE0001344B3FBF1F18900016417490AE00120B5
:101BF00030BD134B5B421344B3FBF1F18900016428
:101C00000F490839C163022180F82110136843F697
:101C1000F0718B43F0E901142143D0E902452C43D4
:101C200021430469214344692143846921431943C1
:101C3000116000214163012242770177084630BDDF
:101C400008040240F8FFFDBF0000024070B50446E2
:101C500090F82000002501280CD0012084F82000F5
:101C600094F821600020012E06D084F8200002257F
:101C7000284670BD022070BD022684F82160A06352
:101C80002068066826F0010606602046FFF7CCFBB8
:101C9000E06A00282068016802D041F00E0106E0E9
:101CA00021F0040101602068016841F00A0101602F
:101CB0002068016841F001010160D9E7064810B5CC
:101CC0004FF0FF31C16000220261C160C26000F0CC
:101CD00057FD002010BD00000010024070B5044602
:101CE00000F01CFB0546601C02D004480078044448
:101CF00000F014FB401BA042FAD370BD340000205A
:101D00002DE9F047054626480F460126017E0129A8
:101D10000FD00121814601762868DFF888804CF2D7
:101D20005034022808D0A2462046FFF707FDA8B18C
:101D300031E00220BDE8F0872046FFF7FFFC08BB3A
:101D40000120FFF7ADFB2046FFF7F8FCD8F8101094
:101D5000064621F00401C8F810101CE04FF0FF30D7
:101D60003860AC6811E02046FFF79AFC5046FFF758
:101D7000E5FCD8F81010060021F00201C8F8101098
:101D800001D03C6007E004F50064D5E9020100EBF6
:101D9000C120A042E7D8002189F818103046C9E7D1
:101DA000284F00200020024070B5FFF73BFCC5B271
:101DB0004CF250363046FFF7C1FC002818D10D49CF
:101DC000C8610D4C206940F020002061206940F07E
:101DD000400020613046FFF7B1FC216921F020016D
:101DE0002161002804D12846BDE87040FFF726BCD9
:101DF00070BD0000284F00200020024070B504464E
:101E0000064D07202060286AA060FFF70BFC2074B5
:101E1000E869C0F38200607470BD000000200240D9
:101E20002DE9F0472D4D04460120297E01290ED0D1
:101E30000121297621784FF00007C9070DD060688D
:101E40000128A06806D0FFF73DFBE8BB05E00220B3
:101E5000BDE8F087FFF78EFBF7E72178890703D508
:101E6000207CFFF7EBFB78BB21781D4E49074CF235
:101E7000503916D594F811804846FFF75FFC78B9C1
:101E8000EF61306940F010003061164948F0880079
:101E900008804846FFF752FC316921F0100131619A
:101EA00090B92178090716D5D4F81480247E4846C5
:101EB000FFF744FC40B9EF61306940F01000306139
:101EC000A8F80040484600E005E0FFF737FC31691C
:101ED00021F0100131612F76BAE70000284F002071
:101EE0000020024002F8FF1F0348016941F0800111
:101EF00001610020704700000020024000F0AEBCED
:101F00000348016921F4007101610020704700005D
:101F10000020024005480169890505D40449816013
:101F20000449816000207047012070470020024072
:101F300023016745AB89EFCD2DE9F05F07461C48CB
:101F400088460024017E15461E46012909D001213C
:101F5000814601764CF2503A5046FFF7EFFB18B13C
:101F600022E00220BDE8F09F012F02D0022F00D016
:101F70000427D346DFF83CA0220128463146FEF76D
:101F800057F981B208EB4400FFF79CFB5846FFF776
:101F9000D5FBDAF8102022F00102CAF8102018B997
:101FA000641CE4B2BC42E7D3002289F81820D9E7C8
:101FB000284F002000200240064900200A6912062E
:101FC00007D5054A4A60054A4A600969090600D5ED
:101FD000012070470020024023016745AB89EFCD07
:101FE0002DE9F04300233E4F0F2574E001229A4073
:101FF0000A406ED023F00304E619D6F808809C0747
:102000004FEA147C05FA0CF909EA0804DFF8D480D9
:10201000404502D14FF0000824E0DFF8CC80404575
:1020200002D14FF001081DE0DFF8C080404502D129
:102030004FF0020816E0DFF8B880404502D14FF0BB
:1020400003080FE0DFF8AC80404502D14FF00408F0
:1020500008E0DFF8A480404502D14FF0050801E018
:102060004FF0060808FA0CF8A04515D1D6F808C0BC
:102070002CEA090CC6F808C0204E3468944334603A
:10208000341D266896432660241D266896432660E4
:10209000241D266896432660FF2A01D8064601E0E3
:1020A00000F104064FEA830401D9A4F12004D6F814
:1020B00000C005FA04F82CEA080C4FF0040808FAEE
:1020C00004F84CEA080CC6F800C0C46824EA02040C
:1020D000C46003F1010331FA03F287D1BDE8F08354
:1020E0000000014000080140000C014000100140C8
:1020F0000014014000180140001C01400004014090
:102100002DE9F84FDFF8C891002409F1040A0AF11B
:10211000040B23460F270BF1040ED1E00125A54047
:1021200006EA0502AA4276D1DFF8A8C14E68A6EBFE
:102130000C0866452BD00DDC032E34D005DC36B3FD
:10214000012E19D0022E2FD11BE0112E16D0122EE7
:102150002AD119E0B8F5881F19D006DCB8F5803F00
:1021600015D0B8F5801F1FD111E0B8F5001F0ED0B3
:10217000B8F5041F18D10AE0CB6815E0CB681B1D29
:1021800012E0CB6808330FE0CB680C330CE08B68AF
:102190002BB1012B4FF0080303D0456104E0042369
:1021A00002E0056100E00023FF2A01D8064601E0B5
:1021B00000F104064FEA840501D9A5F12005D6F8FF
:1021C000008007FA05FC28EA0C0803FA05F548EA3E
:1021D0000508C6F800804D68ED0070D53E4DAE692B
:1021E00046F00106AE61AD6924F0030605F0010575
:1021F00000953A4D06EB050CDCF80850A607360FA3
:1022000007FA06F825EA0805DFF8D480404503D12F
:102210004FF0000825E052E0DFF8C880404502D1C9
:102220004FF001081DE0DFF8C080404502D14FF0BB
:10223000020816E0DFF8B480404502D14FF00308F1
:102240000FE0DFF8AC80404502D14FF0040808E011
:10225000DFF8A080404502D14FF0050801E04FF0C3
:10226000060808FA06F848EA0508CCF808804D6820
:10227000D9F80060ED034D4601D5164300E09643C2
:102280002E604D68DAF80060AD03554601D516435F
:1022900000E096432E604D68DBF80060ED025D467D
:1022A00001D5164300E096432E604D68DEF80060CD
:1022B000AD02754601D5164300E096432E60641CBE
:1022C0000A681646E2407FF429AFBDE8F88F0000A7
:1022D0000004014000001110001002400000014005
:1022E00000080140000C01400010014000140140B2
:1022F00000180140001C01408068084000D0012007
:102300007047C26821EA02030A4043EA02410161C0
:1023100070470AB1016170470904FBE70148806812
:10232000704700003400002010B5040013D02420B2
:1023300084F83D002068016821F001010160204619
:1023400000F066F90020206484F83D0044F8300F66
:10235000A073207310BD012010BD000070B50400F3
:1023600025D094F83D00002520B984F83C50204643
:1023700000F06AF9242084F83D002068016821F00B
:10238000010101602068016841F40041016020689A
:10239000016821F40041016000F07EFB4D4A616854
:1023A000914201D84C4900E04C49884201D20120B9
:1023B00070BD4B492368B0FBF1F15E6826F03F0623
:1023C0000E435E606368934206D94FF49673594397
:1023D0004FF47A73B1FBF3F12368491C1E6A26F0AF
:1023E0003F06314319626168914210D84900401E8E
:1023F000B0FBF1F2521CC2F30B02042A01D20420FA
:1024000022E0B0FBF1F0401CC0F30B001CE0A2681E
:10241000F2B301EBC10303EB0116431EB3FBF6F36A
:102420005B1C43F480431B0549D092B301EBC1020E
:1024300002EB0111401EB0FBF1F0401CC0F30B0099
:1024400040F4804040F400402168CA694CF6FF73B4
:102450009A431043C861D4E9071001432068026819
:1024600022F0C00211430160D4E903010143206856
:10247000826848F2FF339A4311438160D4E9050131
:1024800008432168CA6822F0FF021043C86001E0D7
:102490000EE016E02068016841F00101016025644A
:1024A000202084F83D00256384F83E50002070BD54
:1024B00001EB4106431EB3FBF6F35B1CB3E70120BF
:1024C000C2E701EB4101401EB0FBF1F0401CC0F33C
:1024D0000B00B7E7A086010080841E0000093D00C4
:1024E00040420F002DE9F84F1F4690468A460446A9
:1024F000DDF82890FFF712FF054694F83D002028EC
:102500007FD11923012240492046009501F06EFB3E
:10251000002876D194F83C00012872D0012084F87C
:102520003C0020680168C90703D1016841F001013E
:1025300001602068016821F400610160212084F8B5
:102540003D00102084F83E0000262664C4F8248054
:102550006785608D20852D48E0622B464A465146AE
:10256000204601F0CFFA90B9206841698069009057
:1025700036E02A464946204601F0B7FB50B1206CB0
:10258000042804D12068016841F400710160012031
:10259000BDE8F88F606A216800780861606A401CB5
:1025A0006062618D491E6185218D491E89B2218538
:1025B00022685369DB435B070BD451B1007810618B
:1025C000606A401C6062608D401E6085208D401EE8
:1025D00020852A464946204601F0E2FA0028CED15D
:1025E000208D0028C5D154F83D0B016841F40071DD
:1025F0000160202004F81E09E67766770020C7E70F
:10260000FFE70220C4E70000020010000000FFFF07
:1026100010B50068094988420FD10948C16921F401
:102620000011C161074C40212046FFF7D9FC20462C
:10263000BDE810408021FFF7D3BC10BD005400401E
:1026400000100240000C014010B586B0002100913E
:1026500001910291039100680F4988421AD10F4CF1
:10266000A06940F00800A061A069694600F0080078
:102670000490C0200090122001900320039008488D
:10268000FFF73EFDE06940F40010E061E06900F40E
:102690000010049006B010BD00540040001002402D
:1026A000000C014070B5040011D021684CF6CC40FC
:1026B0000860216845F255500860D4E90001416086
:1026C0002168A0688860FFF729FE05460DE001201B
:1026D00070BD00BFFFF722FE401B272805D92068E8
:1026E000C068800701D0032070BD2068C0688007E3
:1026F000F0D121684AF6AA200860002070BD006869
:102700004AF6AA2101600020704700000248816853
:10271000027811448160704734000020074810B5EA
:10272000016841F010010160032000F085F80F20DE
:1027300000F006F800F026F8002010BD002002404E
:1027400070B50D4D04464FF47A712878B1FBF0F066
:102750000A490968B1FBF0F000F014FF48B9102CE9
:1027600007D200222146501E00F046F800206C607F
:1027700070BD012070BD000034000020300000203A
:10278000704700000B4808B5816941F00101816183
:10279000816901F001010091C16941F08051C1617D
:1027A000C06900F0805000900348416821F0E0616A
:1027B000416008BD001002400000014000280DDB10
:1027C00000F01F02012191404009800000F1E0204B
:1027D000C0F88011BFF34F8FBFF36F8F7047002891
:1027E00009DB00F01F02012191404009800000F147
:1027F000E020C0F800117047F0B40E4B1B680C4687
:10280000C3F30223C3F10705042D00D90425191DC4
:10281000072901D2002300E0DB1E012606FA05F19C
:10282000491E214099409E40761E16403143F0BC1F
:1028300002F022BC0CED00E0064900F00702086837
:102840004FF6FF03184040EA0220034A1043086095
:10285000704700000CED00E00000FA05BFF34F8F59
:1028600005480168054A01F4E06111430160BFF3C6
:102870004F8F00BFFDE700000CED00E00400FA05FB
:10288000704700002DE9F0470F46050061D0434E28
:10289000306800F00700B84209D2306820F0070025
:1028A00038433060306800F00700B84251D12868E2
:1028B0003B4C810712D5400703D5606840F4E060C7
:1028C00060602878000703D5606840F4605060605D
:1028D0006068A96820F0F000084360602878C007AD
:1028E00028D06868012810D02168022810D08907F4
:1028F00000292EDA616821F0030101436160FFF7CE
:102900000DFD804641F288390DE021688903EFE72B
:102910008901EDE7FFF702FDA0EB0801494502D967
:102920000320BDE8F0876068696800F00C00B0EB38
:10293000810FEFD1306800F00700B8420BD9306842
:1029400020F0070038433060306800F00700B842DC
:1029500001D00120E5E72878400705D56068E968DF
:1029600020F4E060084360602878000706D56068BE
:10297000296920F4605040EAC100606000F0ACF8C2
:102980006168084AC1F30311515CC84006490860F8
:1029900006480068FFF7D4FE0020C2E7002002408E
:1029A00000100240308E0008300000203800002067
:1029B0002DE9F041FFF7B2FC304C0546206840F0AD
:1029C0000100206005E000BFFFF7A8FC401B0228C3
:1029D00043D820688007F7D5206820F0F80040F041
:1029E00080002060FFF79AFC00250646656041F2F2
:1029F000883704E0FFF792FC801BB8422DD860684E
:102A000010F00C0FF6D11F491D4808601E480068E1
:102A1000FFF796FE10B10120BDE8F081FFF77EFCC4
:102A20000646206820F08070206004E0FFF776FC06
:102A3000801B022811D820688001F7D46560FFF759
:102A40006DFC0646206820F41020206007E000BFDF
:102A5000FFF764FC801B642801D90320DCE72068B1
:102A60008003F5D4206820F480202060606A40F064
:102A700080706062A5600020CEE700000010024078
:102A800000127A00300000203800002001490120A7
:102A9000C86470470000424204480549006849681C
:102AA000044AC1F30221515CC84070473000002045
:102AB00000100240408E000804480549006849683B
:102AC000044AC1F3C221515CC84070473000002065
:102AD00000100240408E000813A185B00FC98DE898
:102AE0000F0015A0154A00680490516801F00C0011
:102AF000042804D0082804D0114805B070471148B4
:102B0000FBE7C1F38343C9031DF8030009D55168EE
:102B100004AAC1F34041515C0A4A5043B0FBF1F0B2
:102B2000EBE709494843E8E70203040506070809FB
:102B30000A0B0C0D0E0F10100102000000100240D5
:102B400000127A000024F40000093D0010B5044C86
:102B5000A068000603D5FFF793FE8020A07210BD89
:102B6000001002402DE9F84F040070D02078C04DCD
:102B7000C00749D06868C0F38100012807D06868A1
:102B8000C0F38100022809D16868C00306D528680F
:102B9000800339D560680028E7D035E06068B0F57B
:102BA000803F0BD010B1B0F5A02F11D0286820F4D1
:102BB00080302860286820F4802002E0286840F4F3
:102BC00080302860606890B1FFF7A8FB06460AE0F5
:102BD000286840F480202860F0E700BFFFF79EFBE4
:102BE000801B642873D828688003F7D50CE0FFF7B2
:102BF00095FB064605E000BFFFF790FB801B6428AD
:102C0000F0D828688003F7D420789A4E80074FF0D8
:102C100001094FF0000839D5686810F00C0F07D093
:102C20006868C0F38100022809D16868C00306D42F
:102C30002868800714D52069012808D110E0206990
:102C4000B0B1C6F80090FFF769FB074605E00AE15E
:102C5000FFF764FBC01B0228C4D828688007F7D59B
:102C60002868616920F0F80040EAC10028600DE0A2
:102C7000C6F80080FFF752FB074604E0FFF74EFB63
:102C8000C01B022823D828688007F7D420780007C3
:102C90002CD57948A169D9B1C0F80090FFF73EFB67
:102CA000074604E0FFF73AFBC01B02280FD8686A0A
:102CB0008007F7D571484FF4FA510068B0FBF1F086
:102CC000009000BF0098411E0091FAD20EE080E013
:102CD000C0F80080FFF722FB074604E0FFF71EFB69
:102CE000C01B022875D8686A8007F7D4207840078F
:102CF00060D5E8690027C00008D4E86940F080503A
:102D0000E861E869012700F0805000905C480168A4
:102D1000C90513D40168834641F480710160FFF74F
:102D2000FDFA824606E000BFFFF7F8FAA0EB0A00C2
:102D300064284ED8DBF80000C005F5D5E06801280E
:102D40000AD008B1052813D0286A20F001002862B3
:102D5000286A20F0040002E0286A40F0010028629E
:102D6000E06841F2883B98B1FFF7D8FA82460BE061
:102D7000286A40F004002862EEE700BFFFF7CEFAB1
:102D8000A0EB0A0159455AD8286A8007F6D50CE00D
:102D9000FFF7C4FA824605E0FFF7C0FAA0EB0A018C
:102DA00059454CD8286A8007F6D41FB1E86920F04D
:102DB0008050E861E06988B36968C1F38101022944
:102DC00044D00228C6F8608004D0FFF7A7FA044672
:102DD00038E034E0FFF7A2FA074604E0FFF79EFA76
:102DE000C01B02282BD828688001F7D4206AB0F5D0
:102DF000803F05D16868A16820F40030084368600E
:102E0000D4E908010843696821F474110843686033
:102E1000C6F86090FFF782FA044606E025E000BF9E
:102E2000FFF77CFA001B022809D828688001F7D533
:102E30001BE000BFFFF772FA001B022802D9032033
:102E4000BDE8F88F28688001F4D40EE00128F7D09F
:102E50006868226A00F48031914204D1616A00F40A
:102E60007010884201D00120EAE70020E8E7000066
:102E70000010024000004242800442423000002024
:102E80000070004010B504000DD0032084F8340019
:102E9000206801F0D7FA204600F052F90020A06324
:102EA00084F8340010BD012010BD0000F0B5426E62
:102EB000920F0A70426EC2F383624A70426EC2F38E
:102EC00001628A70426E120CCA70B0F86420120A55
:102ED0000A7190F864204A71826E120DCA80826E67
:102EE000C2F303420A72B0F86820C2F3C0324A72D9
:102EF000B0F86820C2F380328A72B0F86820C2F35A
:102F00004032CA72B0F86820C2F300320A73002659
:102F10004E73426C4FF40075012462B1012A3AD01D
:102F2000026847499163816B41F08051816380F869
:102F300034400120F0BDB0F86820C36E9205120D38
:102F400042EA93720A61C26EC2F3C2620A75C26E2D
:102F5000C2F302624A75C26EC2F342528A75C26EF1
:102F6000C2F38242CA75C26EC2F3C2320A760A69DD
:102F7000521C42650B7E03F007039B1C9A4042657E
:102F80000B7A03F00F0704FA07F383655B0A5A43D1
:102F9000C0E917250EE090F86820C36E9206920AE9
:102FA00042EA13420A610A69521C92024265C0E970
:102FB0001652056630F86C2FC2F3803201F8192FD3
:102FC0000288C2F3C6124A70027802F07F028A7049
:102FD0004268D20FCA704268C2F341720A714268F5
:102FE000C2F382624A714268C2F383528A714268B4
:102FF000C2F34052CA710E724268C2F300424A7272
:103000008288C2F3C0328A728288C2F38032CA7266
:103010008288C2F340320A738288C2F300324A7354
:103020008288C2F381228A738288C2F30122CA7322
:103030000079C0F3460008744C740020F0BD000015
:10304000FF054000426C0A60826C4A60C26C8A6074
:10305000026DCA60426D0A61826D4A61C26D8A6109
:10306000006EC8610020704770B50446B0F850008B
:1030700000250104206801F030FB18B1A16B014369
:10308000A16304E00021206801F0C7F90546C5F3FB
:10309000432070BD70B504000ED094F834000025B4
:1030A00018B92577204600F069F8032084F8340029
:1030B000204600F00BF808B1012070BDA563256320
:1030C000012084F83400002070BD0000FEB500250A
:1030D000044676200095CDE9015029460B460A4664
:1030E000206801F09DF928BB134E46F8A05F2068C8
:1030F00001F0ACF901253560204601F001FD28B151
:1031000084F83450A16B0143A16313E0204601F021
:103110007FFC0028F4D14FF40071206801F0EAF937
:10312000002808D0226805499163A16B0143A1637F
:1031300084F834500120FEBD00003042FF054000FD
:1031400010B50068094988420FD10948416921F446
:10315000806141614FF488510648FEF741FFBDE8A8
:10316000104004210448FEF73BBF10BD0080014021
:1031700000100240001001400014014030B585B03D
:103180000021009101910291039100681849884241
:103190002BD11848416941F480614161416901F4D2
:1031A00080610491816941F010018161816901F0C0
:1031B00010010491816941F020018161806902243C
:1031C00000F0200004904FF48850CDE9000403255E
:1031D000694603950848FEF793FF0420CDE90004F3
:1031E000694603950548FEF78BFF05B030BD00002A
:1031F0000080014000100240001001400014014016
:103200002DE9F04F87B09B4616460D460446FFF762
:1032100085F800903DB194F83400012807D0A06BE8
:1032200040F000500DE0A06B40F0006009E000208D
:10323000A063E26D06EB0B01914204D9A06B40F054
:103240000070A06386E0032184F834102168C8620E
:10325000616C012900D076024FF0FF3101914FEAF5
:103260004B2102914FF0010803AA902102278146C9
:10327000CDF8188082E8820201A9206801F0B7F831
:10328000BBF1010F05D927633146206801F0AEF983
:1032900005E0C4F830803146206801F0C0F9DFF85D
:1032A00034A130B12268C2F838A0A16B0143A163F8
:1032B0004CE0029E1EE0406B000413D596B100273F
:1032C000206801F0CBF805F8010B010A05F8011B95
:1032D000010C05F8021B000E361F7F1C05F8010CBF
:1032E000082FEDD3FFF71AF80099411A1098814280
:1032F0001DD2E0B12068426B40F22A310A42DAD096
:10330000416BC90509D5BBF1010F06D9616C0329D1
:1033100003D001F013FA0028C4D12068416B0907DB
:103320001AD5C0F838A0A06B40F0080050E0216822
:10333000C1F838A0A06B40F00040A06384F834804E
:10334000C4F83090032007B0BDE8F08F84F83480D3
:10335000C4F830900120F6E7416B890705D5C0F825
:1033600038A0A06B40F0020032E0416B89061BD50B
:10337000C0F838A0A06B40F0200029E001F06EF802
:1033800005F8010B010A05F8011B010C05F8021BE9
:10339000000E05F8010C361FFEF7C0FF0099411A18
:1033A000109881420ED268B12068416B890201D524
:1033B000002EE3D1216840F23A50886384F83480CB
:1033C0000020C0E72168C1F838A0A06B40F00040A1
:1033D000A063BBE7FF0540002DE9F04F8DB09B4691
:1033E00016460D460446FEF799FF0A903DB194F843
:1033F0003400012807D0A06B40F000500DE0A06B16
:1034000040F0006009E00020A063E26D06EB0B01D4
:10341000914204D9A06B40F00070A0637AE00321D0
:1034200084F834102168C862616C012900D07602EA
:103430004FF0FF3103914FEA4B2104919021CDE9E8
:1034400005104FF00109CDE90709824603A920685C
:1034500000F0CDFFBBF1010F06D9202020633146DB
:10346000206801F085F905E01020206331462068CE
:1034700001F097F95FEA000806D0216840488863A8
:10348000A06B40EA080071E0049E27E0406B400416
:103490001CD5DEB15FF0000715F8010B009015F8A0
:1034A000011B361F40EA0120009015F8021B40EA7C
:1034B0000140009015F8011C40EA01600090694647
:1034C000206800F0DEFF7F1C082FE5D3FEF726FF03
:1034D0000A99411A1698814220D2F8B12068416BAE
:1034E00040F21A321142D1D0416BC90523D5BBF14C
:1034F000010F20D9616C03291DD001F01FF9D0B153
:1035000022681F499163A16B0143A16384F8349041
:10351000C4F830A001200DB0BDE8F08F2168184834
:103520008863A06B40EA0800A06384F83490C4F874
:1035300030A00320EFE72068416B090705D510494B
:103540008163A06B40F0080010E0416B890705D54E
:103550000B498163A06B40F0020007E0416BC90694
:1035600006D507498163A06B40F01000A063CDE74A
:1035700040F23A51816384F834900020CBE7000098
:10358000FF05400010B5401EB0F1807F01D301203F
:1035900010BD4FF0E02460610F21601701F06CFD59
:1035A0000020A06107202061002010BD38B504462E
:1035B00090F83E0020281CD181B17AB194F83C00EB
:1035C000012816D0012084F83C002063204601F039
:1035D00009FD002803D1216B012901D0012038BD4C
:1035E00021680A684A680092CA6842F01002CA60FC
:1035F00038BD022038BD000070B50D4600681B497B
:10360000884231D11A4C1B4826466189218176892E
:103610004B1941F27C523044934210D9511A8EB268
:1036200032461549FCF7EDFF002020811248AD1B02
:1036300081192A460F48FCF7E4FF658106E02A4617
:103640000D49FCF7DEFF2089284460810A494FF4C8
:10365000FA72A1F1DC00FFF7A9FF0748983800686B
:10366000016821F00401016070BD000000440040C9
:103670000800002094340020A032002010B504007F
:1036800014D0242084F83D002068C16821F4005142
:10369000C160204600F046F90020206484F83D0017
:1036A00084F83E0044F8300F207310BD012010BD97
:1036B00070470000F8B5026804461068D168536985
:1036C00010F00F0F4FF0000553D003F0010601F486
:1036D000907737435FD0C20705D0CA0503D5226C67
:1036E00042F001022264420705D5DA0703D0226CBA
:1036F00042F002022264820705D5DA0703D0226C69
:1037000042F004022264020707D501F0200232438E
:1037100003D0226C42F008022264226C002A34D0CA
:10372000800604D5880602D5204601F0A3FB206858
:103730004069216CC0F38010090700D430B32046E3
:1037400001F077FB2068416949061BD5416921F0EA
:1037500040014161A06BA8B158494163A06BFEF7DD
:103760003BF8002811D0A06B416B01B0BDE8F040E0
:10377000084783060FD58B060DD52046BDE8F840D7
:1037800001F078BB2046FFF793FFF8BD2046FFF716
:103790008FFF2564F8BD266B2023012E52D1C6066B
:1037A00050D5CE064ED5106850680090506940063E
:1037B0002AD5A16B086840680004000CEAD0A68DE9
:1037C0008642E7D9E0858869202818D0D06820F49F
:1037D0008070D0602068416921F00101416120685A
:1037E000416921F04001416184F83E302563206841
:1037F000C16821F01001C160A06BFDF7C9FFA08D69
:10380000E18D401A81B219E0A08DE18D401A81B29C
:10381000E08D0028BED00029BCD0D06820F4907084
:10382000D0602068426922F00102426184F83E3093
:1038300025632068C26822F01002C2602046FFF7AC
:10384000DBFEF8BD05062BD50D0629D594F83D0005
:103850002128F6D1A068B0F5805F01D12069B0B110
:10386000206A411C2162216800784860E08C401E7B
:103870000004000CE084E4D12068C16821F08001DC
:10388000C1602068C16841F04001C160F8BD206A94
:103890000088C0F308005060206A801C2062E5E7C1
:1038A0004006F3D54806F1D5D168204621F0400105
:1038B000D16084F83D3000F00BF9F8BD2D4D0008C3
:1038C00070B5040004D094F83D00002510B106E066
:1038D000012070BD84F83C50204600F045F82420BB
:1038E00084F83D002068C16821F40051C160204681
:1038F00001F01CFB2068016921F4904101612068FE
:10390000416921F02A0141612068C16841F40051F8
:10391000C1602564202084F83D0084F83E0000202A
:1039200070BD000010B5044600680C49884213D1F0
:103930000B48C16921F40031C1610C210948FEF72F
:103940004FFBA06BFDF7E0FF606BFDF7DDFFBDE80F
:1039500010402620FEF732BF10BD0000004400409A
:1039600000100240000801402DE9F04186B000241B
:103970000646009401940294039400682D498842FD
:1039800055D12D48C16941F40031C161C16901F4CB
:1039900000310491816941F0040181618069274D02
:1039A00000F0040004900420009002200190032005
:1039B000039069462846FEF7A3FB0820CDE90004E2
:1039C000694628460294FEF79BFB1E4D1C484FF0AB
:1039D0008008C5E90004C5E902482C614FF440574E
:1039E0006C61C5E906472846FEF7F2F808B1FDF715
:1039F00031FDB5636E621248134D143001C51020BD
:103A0000A5E81101104845F810496C61C5E9064761
:103A1000FEF7DEF808B1FDF71DFD756300221146C3
:103A200026206E62FEF7E8FE2620FEF7D8FE06B0DE
:103A3000BDE8F08100440040001002400008014051
:103A40006C000240083200204C3200207047704762
:103A500070B5044690F83D00202830D169B362B3B8
:103A600094F83C0001282AD0012084F83C0021620F
:103A7000A284E28400252564212084F83D00636B44
:103A800010489862636B1048D862636B0F481863E4
:103A9000606B134645632668606B321DFEF7D6F8EF
:103AA00021686FF04000086084F83C50206841694C
:103AB00041F080014161002070BD012070BD0220F5
:103AC00070BD0000FB4D0008294E00083D4D000868
:103AD00070477047FEE701684A69D24352050FD428
:103AE0006FF480624A61002140F8301F2022427347
:103AF0008173026942F00402026101730120704780
:103B000000207047F8B50446C06A1E460D461746A9
:103B1000082807D0012805D010F5803F02D0206B7F
:103B2000122804D12068016841F4807101601346B5
:103B300000224FF001112046009600F057F840B1E6
:103B400020680068C00502D54FF40070206403208F
:103B5000F8BD2069B0F5804F0ED00620216800EA3C
:103B6000D51040F0F000086133463A460B49204634
:103B700000F070F878B902E005F0FE0000E0E8B26D
:103B800021680861054933463A46891F204600F0FE
:103B900061F80028DCD00120F8BD00000800010019
:103BA00070B516460D4604460DE02046FFF793FF1C
:103BB00008B1012070BD681C05D0FEF7AFFB801B6B
:103BC000A84207D835B120684069C0434007ECD40B
:103BD000002070BD002044F8300F20216173A073D5
:103BE000216941F0200121612073E2E72DE9F047CE
:103BF0001E4690460D460446C1F30747DDF8209067
:103C000008E0701C06D0FEF789FBA0EB0900B0426B
:103C10000FD876B12068012F18D0806925EA0000FE
:103C20000004000C14D000214145EAD00020BDE87A
:103C3000F087002044F8300F20216173A0732169C0
:103C400041F02001216120730120F0E74069E5E7A0
:103C50000121E9E72DE9F0479A4691460E460446D0
:103C600000254FF02008C1F3074725E02068406990
:103C7000C043400514D42068016841F4007101601C
:103C800021686FF480604861256384F83D8084F882
:103C90003E50206C40F00400206484F83C501FE04B
:103CA000B9F1FF3F08D0FEF739FBA0EB0A01494507
:103CB0000CD8B9F1000F09D02068012F13D080690A
:103CC00026EA00000004000C0BD0CFE744F8305F78
:103CD00084F80D80A573206940F0200020612573D1
:103CE0000120BDE8F0874069EAE770B516460D4649
:103CF00004460DE02046FFF7EEFE08B1012070BD3E
:103D0000681C05D0FEF70AFB801BA84207D835B116
:103D100020684069C0430006ECD4002070BD00203C
:103D200044F8300F20216173A073216941F0200114
:103D300021612073E2E7000007490968C9070AD03A
:103D4000054980390968C90705D04FF060410A6804
:103D5000002AFCD008707047800E00E02DE9F04189
:103D60000F460A46044601460E20FDF7EFFA1C4EA8
:103D70000D25607B617A617361796172617861712F
:103D80006070A078A17AA170A072A079A17BA171C6
:103D9000A073E078E179E170E17AE171E17BE172B1
:103DA000E07300205FF0000104EB8102491C135C0A
:103DB000C9B20429F35C1354F6D3401CC0B20428E2
:103DC000F0D33A4621462846FDF7C0FA002D05D02B
:103DD000204600F007F86D1EEDB2CAE7BDE8F0819D
:103DE000028D00082DE9F14F0024009800EB8405B6
:103DF00010F8248095F8019095F802B095F803A08A
:103E0000404604F0F5FE04F0F3FE04F0F1FE04F089
:103E1000EFFE504604F0ECFE584604F0E9FE48463A
:103E200004F0E6FE04F0E4FE484604F0E1FE04F08F
:103E3000DFFE04F0DDFE04F0DBFE504604F0D8FEA9
:103E400004F0D6FE04F0D4FE04F0D2FE504604F096
:103E5000CFFE04F0CDFE584604F0CAFE04F0C8FEC2
:103E600004F0C6FE04F0C4FE404604F0C1FE06465F
:103E7000404604F0BDFE04F0BBFE4640404604F060
:103E8000B7FE04F0B5FE04F0B3FE4640484604F029
:103E9000AFFE80EA0907484604F0AAFE04F0A8FE37
:103EA00004F0A6FE47407E40584604F0A1FE04F010
:103EB0009FFE80EA0B07584604F09AFE04F098FE35
:103EC00004F096FE47407E40504604F091FE04F018
:103ED0008FFE04F08DFE80EA0A004640009800F84C
:103EE0002460404604F084FE504604F081FE5846AB
:103EF00004F07EFE04F07CFE484604F079FE04F0F7
:103F000077FE04F075FE04F073FE404604F070FE88
:103F100004F06EFE04F06CFE04F06AFE404604F00D
:103F200067FE04F065FE504604F062FE04F060FE99
:103F300004F05EFE04F05CFE584604F059FE04F006
:103F400057FE04F055FE04F053FE404604F050FEC8
:103F500004F04EFE04F04CFE80EA0806484604F0E9
:103F600047FE0746484604F043FE04F041FE474042
:103F7000484604F03DFE04F03BFE04F039FE4740A5
:103F80007E40584604F034FE80EA0B07584604F0A1
:103F90002FFE04F02DFE04F02BFE47407E405046DD
:103FA00004F026FE04F024FE80EA0A07504604F0DE
:103FB0001FFE04F01DFE04F01BFE47407E406E70A5
:103FC000404604F015FE504604F012FE04F010FEC8
:103FD000584604F00DFE04F00BFE04F009FE04F058
:103FE00007FE484604F004FE404604F001FE04F0DB
:103FF000FFFD04F0FDFD04F0FBFD504604F0F8FD6C
:1040000004F0F6FD04F0F4FD04F0F2FD484604F07F
:10401000EFFD04F0EDFD04F0EBFD04F0E9FD484692
:1040200004F0E6FD04F0E4FD404604F0E1FD04F098
:10403000DFFD80EA0806404604F0DAFD04F0D8FD12
:1040400004F0D6FD4640484604F0D2FD04F0D0FD11
:1040500004F0CEFD80EA09004640584604F0C8FD51
:104060000746584604F0C4FD04F0C2FD47405846D8
:1040700004F0BEFD04F0BCFD04F0BAFD47407E40F4
:10408000504604F0B5FD80EA0A07504604F0B0FD42
:1040900004F0AEFD04F0ACFD47407E40AE704046FB
:1040A00004F0A6FD04F0A4FD504604F0A1FD04F0C8
:1040B0009FFD04F09DFD04F09BFD584604F098FD23
:1040C000484604F095FD404604F092FD04F090FD52
:1040D00004F08EFD04F08CFD584604F089FD04F0D8
:1040E00087FD04F085FD04F083FD584604F080FD53
:1040F00004F07EFD484604F07BFD04F079FD04F0F9
:1041000077FD04F075FD404604F072FD80EA080674
:10411000404604F06DFD04F06BFD04F069FD46407F
:10412000484604F065FD04F063FD80EA090748464F
:1041300004F05EFD04F05CFD04F05AFD47407E4053
:10414000584604F055FD04F053FD04F051FD80EA9B
:104150000B004640504604F04BFD0746504604F025
:1041600047FD04F045FD4740504604F041FD04F092
:104170003FFD04F03DFD47407E40641CE4B2EE701C
:10418000042CFFF432AEBDE8F88F0000F0B5002338
:1041900001EB830511F8234000F8234000EB830472
:1041A0006E786670AE78A670ED785B1CE570082BB3
:1041B000EED32A4C082399000E1F5FEA437E855DEB
:1041C000064465F3070296F801C0B7786CF30F2236
:1041D000F67867F3174266F31F6212D1E75DA65DBA
:1041E00067F30F22655D66F3174265F31F621C4D8E
:1041F00014F80CC005EBD3052D788CEA050C6CF394
:10420000070203F00705042D11D1D5B2655D65F3F2
:104210000702C2F30725655D65F30F22C2F3074568
:10422000655D65F31742150E655D65F31F62A1F1CB
:1042300020055B1C465D0544564046546E7801449B
:1042400086EA12264E70AE783C2B86EA12468E70B5
:10425000ED7885EA1265CD70ADD3F0BD028C000813
:10426000028E000810B504490448FDF7F5F802492C
:10427000491E087010BD000029000020F48E0008BF
:104280002DE9F04385B000254E4800950195029533
:104290000395816941F040018161816901F040012C
:1042A0000491816941F010018161816901F010017F
:1042B0000491816941F080018161816901F080018F
:1042C0000491816941F004018161816901F0040177
:1042D0000491816941F008018161816901F008015F
:1042E0000491816941F480718161816901F4807177
:1042F0000491816941F0200181618069DFF8C88003
:1043000000F020000490002201214046FEF701F851
:10431000DFF8B890002202214846FDF7FAFF4FF679
:10432000FF760324CDE9006469462948FDF7E8FEDD
:104330004EF6FE60CDE9000469464046FDF7E0FE1A
:10434000CDE9006469462348FDF7DAFE0127CDE98F
:1043500002540097694640460197FDF7D1FE41F6A9
:10436000F170CDE9000469464846FDF7C9FE022018
:10437000CDE90007CDE9020469464846FDF7C0FED5
:104380004FF22770CDE90004134F69463846FDF718
:10439000B7FECDE9006469461048FDF7B1FEF81498
:1043A000CDE90005694638460295FDF7A9FE301FA4
:1043B000CDE9000469460A48FDF7A2FE05B0BDE854
:1043C000F08300000010024000100140000801408E
:1043D00000180140001C0140000C01400020014079
:1043E00000140140FEE7FEF7B1FBFEE770470A68E4
:1043F00042624A688262D1E902231A43D1E9043158
:104400000B43C16A1A4321F0F7011143C162002036
:104410007047006800F00300704708444069704727
:1044200070B50DF1100C11439CE870002343194343
:1044300029434268314347F6FF639A430A43426087
:10444000002070BD002101600846704710B50321AF
:1044500001600220FDF742FC002010BDD0F8800072
:1044600070470A688260D1E901231A43D1E9033118
:104470000B43C1681A436FF30B011143C160002065
:1044800070470968C0F880100020704710B586B0EA
:1044900004463720CDE90010402002900020039010
:1044A0004FF48060049069462046FFF7DAFF41F23E
:1044B00088323721204600F08DF906B010BD00008B
:1044C00010B504460A4886B001432920CDE9001002
:1044D00040200290002003904FF4806004906946D1
:1044E0002046FFF7BEFF204600F02CFA06B010BDB4
:1044F0000000108010B586B004461020CDE90010F1
:1045000040200290002003904FF4806004906946A0
:104510002046FFF7A6FF41F288321021204600F026
:1045200059F906B010BD000030B585B0002405462D
:10453000009401944FF480600294CDE903406946F1
:104540002846FFF78EFF0B484FF4FA510068B0FB86
:10455000F1F041F288314843401E03D24FF0004051
:1045600005B030BD696B0906F6D5C520A8632046A5
:10457000F6E700003000002070B585B004464FF427
:10458000D570009001A908204025002681E861002F
:10459000C001049069462046FFF763FF12484FF4BC
:1045A000FA510068B0FBF1F041F288314843401EF7
:1045B00003D24FF0004005B070BD616B11F0450FA4
:1045C000F5D00905F3D4606B400701D5042003E062
:1045D000606BC00702D00120A063ECE7606B40066F
:1045E00000D5A5633046E6E73000002010B586B060
:1045F00004461220CDE900104020029000200390D4
:104600004FF48060049069462046FFF72AFF41F28C
:1046100088321221204600F0DDF806B010BD10B53A
:1046200086B004461120CDE9001040200290002001
:1046300003904FF48060049069462046FFF711FF15
:1046400041F288321121204600F0C4F806B010BDB6
:1046500010B586B004460720CDE900204020029026
:10466000002003904FF48060049069462046FFF7D5
:10467000F8FE41F288320721204600F0ABF806B080
:1046800010BD10B586B0044600210220CDE900100F
:10469000C020CDE902014FF48060049069462046B5
:1046A000FFF7DFFE204600F025F906B010BD10B57B
:1046B00086B004460920CDE90010C02002900020F9
:1046C00003904FF48060049069462046FFF7C9FECE
:1046D000204600F00FF906B010BD10B586B00446B4
:1046E0000D20CDE9001040200290002003904FF4EF
:1046F0008060049069462046FFF7B3FE41F288329D
:104700000D21204600F066F806B010BD30B585B02A
:104710000C46054600210320CDE900104020CDE9DC
:1047200002010001049069462846FFF79AFE2246DE
:104730000321284600F028F905B030BD10B586B039
:10474000044600210C20CDE900104020CDE90201F3
:104750000001049069462046FFF783FE034A0C21BE
:10476000204600F037F806B010BD000000E1F50566
:1047700010B586B004461920CDE900104020029003
:10478000002003904FF48060049069462046FFF7B4
:1047900068FE41F288321921204600F01BF806B06D
:1047A00010BD10B586B004461820CDE90010402099
:1047B0000290002003904FF48060049069462046E8
:1047C000FFF74FFE41F288321821204600F002F830
:1047D00006B010BD454B10B51B684FF4FA54B3FB3F
:1047E000F4F353435B1E02D24FF0004010BD426B06
:1047F00012F0450FF6D01205F4D4426B520703D5E0
:1048000004218163084610BD426BD20702D001210A
:10481000816305E0C52282630269D2B28A4201D077
:10482000012010BD0021FFF7F8FD3149084201D1F8
:10483000002010BD002802DA4FF0007010BD4100CA
:1048400001D5402010BD810001D5802010BDC100E0
:1048500002D54FF4807010BD010102D54FF40070F5
:1048600010BD410102D54FF4806010BDC10102D5D9
:104870004FF4006010BD010202D54FF4805010BD0E
:10488000410202D54FF4005010BD810202D54FF411
:10489000804010BDC10202D54FF4004010BD41035D
:1048A00002D54FF4003010BD810302D54FF48020B3
:1048B00010BDC10302D54FF4002010BD010402D584
:1048C0004FF4801010BD410402D54FF4001010BD0C
:1048D000810402D54FF4800010BD000702D54FF4CB
:1048E000000010BD4FF4803010BD000030000020EB
:1048F00008E0FFFD12494FF4FA520968B1FBF2F1EA
:1049000041F288325143491E02D24FF000407047B5
:10491000426B12F0450FF6D01205F4D4416B4907F3
:1049200003D50421816308467047416BC90703D052
:104930000121816308467047C521816300207047CB
:10494000300000200F494FF4FA520968B1FBF2F130
:1049500041F288325143491E02D24FF00040704765
:10496000426B12F0450FF6D01205F4D4416B4907A3
:1049700003D50421816308467047C5218163002067
:10498000704700003000002030B5204B4FF4FA543F
:104990001B68B3FBF4F341F2883463435B1E02D21D
:1049A0004FF0004030BD446B14F0450FF6D02405A5
:1049B000F4D4436B5B0703D504218163084630BD03
:1049C000436BDB0702D00121816303E00369DBB2A3
:1049D0008B4201D0012030BDC52181630021FFF74A
:1049E0001CFD10F4604F04D0410406D54FF4005074
:1049F00030BD000C1080002030BD000402D54FF403
:104A0000805030BD4FF4803030BD000030000020B9
:104A100010B590B004460120ADF838002068FFF7CB
:104A2000F8FC002854D0606C032842D02068FFF7BF
:104A300028FE00284AD100212068FFF7EEFC6067BD
:104A400004212068FFF7E9FCA06708212068FFF730
:104A5000E4FCE0670C212068FFF7DFFCC4F880006D
:104A6000606C032825D00EA92068FFF74FFE0028B0
:104A70002CD1606C03281CD0BDF8380020650104DF
:104A80002068FFF714FE002820D100212068FFF7DE
:104A9000C4FC606604212068FFF7BFFCA066082103
:104AA0002068FFF7BAFCE0660C212068FFF7B5FC30
:104AB000206704212068FFF7B0FC000DE06403A923
:104AC0002046FEF7F3F930B14FF0805010B010BD22
:104AD0004FF08060FAE7B4F8500000230204206829
:104AE000FFF7B6FD0028F1D104F1100007C88DE8EA
:104AF000070094E80F00FFF793FC0020E6E70000B2
:104B00002DE9F84F0026044600963546B046006869
:104B1000FFF70AFD002827D12068FFF72DFD4FF091
:104B2000805B4FF001094FF6FF7748B1A66420681B
:104B3000FFF7FAFC002817D1A06C012802D020E072
:104B4000C4F8489000212068FFF7A0FC58B918E08D
:104B500000212068FFF79AFC002805D15146206803
:104B6000FFF7AEFC10B15846BDE8F88F0021206871
:104B7000FFF753FC05464FEAD0780098401C0090A0
:104B800002E0DFF82CA00098B84202D2B8F1000F82
:104B9000DED00098B84202D34FF08070E4E768009E
:104BA00002D5C4F8449000E066640020DCE7000011
:104BB000000010C110B5064C01202070FCF7F0FB7E
:104BC00018B9207820F001002070207810BD000076
:104BD0004800002010B5124888B014460078C0077D
:104BE00002D0032008B010BDB9B1012905D00229B7
:104BF00008D003290CD00420F4E76846FCF7BEFB7C
:104C0000069809E06846FCF7B9FB0798208004E0A5
:104C10006846FCF7B3FB079820600020E2E700003D
:104C2000480000202DE9F0411E46174608460125A0
:104C3000094C0A4B32463946FCF7C8FB28B109E05B
:104C4000641E02D20120BDE8F081FCF79DFB002824
:104C5000F6D100252846F6E7A086010000E1F5051B
:104C600010B5064C01202070FCF78EFB18B9207897
:104C700020F001002070207810BD000048000020C6
:104C80002DE9F0411E46174608460125094C0A4BFE
:104C900032463946FCF7AAFB28B109E0641E02D26D
:104CA0000120BDE8F081FCF76FFB0028F6D100255C
:104CB0002846F6E7A086010000E1F5057047FDF7FC
:104CC00025BD10B590B028216846FBF733FD1421AF
:104CD0000AA8FBF72FFD092000904FF48030410017
:104CE000CDE901010121049102240691CDE907409B
:104CF0004FF4E01009906846FDF734FF08B172B632
:104D0000FEE70F20CDE90A0400204FF48061CDE9D1
:104D10000C010E9002210AA8FDF7B4FD08B172B68D
:104D2000FEE7FDF7B3FE10B010BD704710B5406A46
:104D30000021C185C184FEF7BBFC10BD70B5446A7B
:104D40002068406994F83D10C0F3C0100025212967
:104D500004D118B1E584204600F083F8206840694A
:104D600094F83E10C0F38010222904D118B1E585D3
:104D7000204600F05EF8206C40F0100020642046D1
:104D8000FEF796FC70BD10B50146406A09680968D7
:104D900089061BD40021C1850168CA6822F480728B
:104DA000CA6001684A6922F001024A6101684A69E1
:104DB00022F040024A61202180F83E10016B012957
:104DC00004D10168CA6822F01002CA60016B01298F
:104DD00002D0FEF73BFE10BD818DFEF70DFC10BD2D
:104DE00010B5406A016B012902D0FEF730FE10BDFC
:104DF000818D4908FEF700FC10BD10B50146406AE0
:104E00000968096889060CD40021C18401684A69CF
:104E100022F080024A610068C16841F04001C1602F
:104E200010BDFEF755FE10BD10B5406AFEF751FEED
:104E300010BD0168CA6822F49072CA6001684A69AC
:104E400022F001024A61016B012904D10168CA689C
:104E500022F01002CA60202180F83E100021016378
:104E600070470168CA6822F0C002CA60202180F839
:104E70003D10704708B590F83E10222901D002205D
:104E800008BD82684FF480539A4201D1016921B173
:104E9000816A9A421BD04AB10AE00268816A52686C
:104EA000C2F308020A80816A891C08E0026972B1B3
:104EB0000268526802F07F020A70816A491C8162AE
:104EC000C18D491E0904090CC18503D019E002688F
:104ED0005268F1E70168CA6822F02002CA600168DE
:104EE000CA6822F48072CA6001684A6922F001022D
:104EF0004A61202180F83E10016B012903D0FEF7A2
:104F0000A5FD002008BD002101630168CA6822F0E8
:104F10001002CA6001680A68D20602D50A684968A8
:104F20000091818DFEF768FBEBE7000070B5044649
:104F300000680169E26821F440511143016121696F
:104F4000A0680843616908432168CA6841F20C639C
:104F50009A430243CA6020684169A26921F4407102
:104F6000114341611E492068884202D1FDF7A4FD2A
:104F700001E0FDF791FD00EBC00101EB001260685C
:104F800064218000B2FBF0F3B3FBF1F36FF018067D
:104F90007343B2FBF0F5B2FBF0F605EB8305322369
:104FA00003EB0515B5FBF1F5B6FBF1F605F0F005E1
:104FB00005EB0615B2FBF0F6B2FBF0F0B0FBF1F03A
:104FC0006FF01802504306EB800003EB0010B0FBBB
:104FD000F1F0216800F00F002844886070BD0000E7
:104FE0000038014038B581628285002513460446A9
:104FF0000564222084F83E00A26B13489062A26BE5
:105000001248D062A26B12481063A06B0A46456337
:105010002168A06B091DFCF719FE20680168416832
:10502000009184F83C50C16841F48071C1602068EF
:10503000416941F0010141612068416941F040014D
:105040004161002038BD0000874D0008E14D000897
:105050003D4D00080148FEF72DBB0000C431002083
:10506000FEE710B50022835C8C5C63408354521CC5
:10507000D2B2102AF7D310BD0907090E002804DBAD
:1050800000F1E02080F80014704700F00F0000F1FC
:10509000E02080F8141D7047BFF34F8F054801686A
:1050A000054A01F4E06111430160BFF34F8F00BF77
:1050B000FDE700000CED00E00400FA0530380A2896
:1050C00001D201207047002070476FF40041401862
:1050D00004D0012803D0022801D008147047002012
:1050E00070476FF40041401800D0002070476FF403
:1050F0000041401805D0012802D0022801D000202C
:10510000704701207047000070B504004FF0FF3574
:1051100011D020783A280ED10CA12046FBF732FBA3
:1051200058B10CA12046FBF72DFB48B10BA120463E
:10513000FBF728FB38B1284670BD48F2010070BD6E
:1051400048F2020070BD48F2030070BD3A53544467
:10515000494E00003A5354444F5554003A53544476
:10516000455252004FF0FF30704710B50C466FF4B7
:105170000041411813464FF0FF3013D0012902D0EF
:1051800002290FD106E063B114F8010BFEF7D4FD3C
:105190005B1EF8E72BB114F8010BFEF7CDFD5B1E8B
:1051A000F8E7002010BD0000F0B58BB006460025E2
:1051B0002C4628216846FBF7BDFA00206B463118C3
:1051C00049781954401C2828F9DB16F8292F4FF08C
:1051D000FF307178A1F13006092E0BD8A2F130050D
:1051E000092D01D830390EE0A2F14105052D48D82E
:1051F000303910E0A1F14106052E11D8A2F1300599
:10520000092D03D8373901EB021108E0A2F141055D
:10521000052D36D8373901EB0211A1F55C71CDB2FD
:105220005FF0000603EB460213F816105278A2F165
:105230003007092FA1F1300709D8092F01D8303CD8
:1052400008E0A1F14107052F1BD8303C0BE0092FE6
:1052500004D8373C224402EB011109E0A1F14107D7
:10526000052F0ED8373C224402EB0111A1F55C71E9
:10527000761CCCB2142ED5DB6942C9B28C4200D167
:1052800001200BB0F0BD000010B5044600F58050C1
:1052900000220271521EC262204602F011FF08B1C4
:1052A000032010BDB4F8FE01A0F52A41553901D004
:1052B000022010BD94F8360094F8391094F8372085
:1052C00040EA016194F83800000440EA02200143FA
:1052D0000A48B0EB012F0DD014F8521FE278637822
:1052E00041EA0261A278120442EA03221143B0EBC0
:1052F000012F01D1002010BD012010BD00464154F6
:10530000F0B50022174B144600F5805002EB420620
:1053100053F826506DB10768BD420BD103EB8605EB
:1053200087686E68BE4205D12D89C688B54204D013
:1053300000E00124521C022AE8D3022A01D079B9E4
:1053400004E05CB9022909D01220F0BD02EB420052
:1053500003EB80004089B0F5807F01D00020F0BDD4
:105360001020F0BD484F002030B50021064A0C4601
:1053700001EB410352F82350854201D142F823400A
:10538000491C0229F4D330BD484F002000F580505D
:10539000426A006800F58050438980784343B1FB3E
:1053A000F3F0121D02CA19B1884203D3401AF8E77C
:1053B000002070471168084470470000012803D09E
:1053C000024800BF00F05CBB0148FBE7B4200020AE
:1053D0008810002000F58050891E4269921E8A4282
:1053E00001D800207047826A807801FB0020704756
:1053F00001294FF00B02014602D0024800F0DEBC4A
:105400000148FBE7B4200020881000202DE9F0417E
:1054100080460F0000F5805407D0404601F0BFFAE7
:10542000022809D20120BDE8F081E66816B1606962
:10543000B04207D8012605E0411CF4D061698142E1
:10544000F1D83E46354660696D1CA84202D8022557
:10545000022E0AD32946404601F0A1FA38B1411C78
:10546000E1D00128DFD0B542EDD10020DBE76FF0BD
:1054700070422946404602F04DFE30B957B12A46E7
:105480003946404602F046FE20B101280DD00125E4
:105490002846C8E7E5602069411CF9D0401E20611C
:1054A000607940F001006071F2E74FF0FF35EFE7FF
:1054B0002DE9F04789460C6800E0641C21782F290B
:1054C000FBD05C29F9D000F580500B2285692021A2
:1054D000284602F0E4FD002001460B460826E25C67
:1054E0005B1C202A35D92F2A33D05C2A31D02E2AB2
:1054F00001D0B04208D3082E38D12E2A36D1082048
:105500000B268906090EEAE7802A05D3234F41F0CE
:1055100003013A4412F8802C21A700E07F1C97F881
:1055200000C0BCF1000F02D09445F7D11EE0A2F1FB
:105530004107192F02D841F0020107E0A2F16107EB
:10554000192F03D8203A41F00101D2B22A54401C4D
:10555000C5E71C44C9F80040202A01D8042200E015
:10556000002218B12878E52803D004E00620BDE821
:10557000F08705202870082E01D18806010E01F061
:105580000300012801D142F01002C1F3810001287B
:1055900001D142F00802EA720020E8E7488E0008D4
:1055A000222A2B2C3A3B3C3D3E3F5B5D7C7F00003A
:1055B000401E022815D20C4B00EB400203EB820187
:1055C0004889B0F5807F05D008B1401E80B248817F
:1055D00010B104E00020FAE7002043F82200002088
:1055E0007047022070470000484F00202DE9F0412D
:1055F000ADF51A7D884605461446642172A8FBF76E
:1056000099F86422294672A8FAF7FBFF36A295AEF4
:105610000FCA86E80F00202237498DA8FBF736F81D
:1056200064216846FBF786F8642272A96846FBF796
:105630002DF895AA8DA932A8FBF77BFE6822694652
:1056400032A8FBF755FE012C01D0022C02D12BA071
:10565000FAF702FE00256E46012C02D0022C03D080
:1056600010E0715D2AA001E0715D2CA0FAF7F4FD55
:105670006D1C682DF0D3012C01D0022C02D128A082
:10568000FAF7EAFD2C26642119A8FBF753F83246F5
:10569000694619A8FAF7FAFF012C01D0022C02D1B1
:1056A00020A0FAF7D9FD002519AF012C02D0022C59
:1056B00003D010E0795D16A001E0795D17A0FAF73C
:1056C000CBFD6D1CB542F0D3012C01D0022C02D1D0
:1056D00013A0FAF7C1FD19A94046FAF743FF0DF5EB
:1056E0001A7DBDE8F081000068656C6C6F667563BB
:1056F0006B6572313036356F108E00084166746507
:10570000722044656372797074203A2000000000B2
:105710005B3078253032585D0000000025630000C2
:105720000D0A00004F726967696E616C20446174F4
:1057300061203A200000000010B51E4C4FF480712B
:105740002046FCF74DFC10212046FCF749FC1A4886
:10575000816921F010018161816921F00801816175
:10576000816921F0040181614FF0FF30FDF726F8D7
:105770004FF0E024206920F0010020610F48FCF781
:10578000D3FD0E48E430FDF779FF0C486030FDF79B
:1057900079FB0B48FCF7B8F809484430FCF7B4F83B
:1057A000FDF706F9FCF78AFA002020616061A0612C
:1057B00010BD00000008014000100240E030002051
:1057C000083200202DE9F04100F580540F46E688AC
:1057D000761C3004000C38D0216991B3206800F5A4
:1057E000805253895B09B6FBF3F503FB1563002B6D
:1057F00067D1491C2161E16821B3538992785B0923
:10580000B6FBF3F3521E13425BD101F0C8F8054614
:1058100001281FD9681C39D0206841F214010958A9
:10582000A94248D86FB1E168FFF7F0FD05000FD03D
:10583000012D0FD0681C29D0206803F021F928BB66
:105840000AE002E01089B0423BD80420BDE8F081B4
:105850000720FBE70220F9E741F20A0120680A5A13
:10586000002102F01CFC29462068FFF7B3FD2168E7
:10587000002701F580514FF00108C8620FE000BF1A
:1058800080F80480206803F0FBF808B10120DDE710
:10589000206800F58050C16A491C7F1CC1622068E5
:1058A00000F580508178B942EAD8216801F580512D
:1058B000C96AC91BC162E56029462068FFF78AFDF5
:1058C0002061E68041F20A012068095A4909B6FBC5
:1058D000F1F201FB126100EB411060610020B5E7BD
:1058E00070B50446002100F033F888B904F58055FE
:1058F0002969286802F0E4FB50B968690078E52856
:1059000009D040B101212046FFF75CFF0028EFD00D
:10591000042809D009E004F580542169206802F0C8
:10592000CFFB050003D011E0072005460EE0202242
:105930000021606902F0B3FBD4E905010B2202F0FB
:10594000A5FB2068012100F580500171284670BD3B
:1059500070B500F580540D46E180A368012B42D05C
:10596000206800F58050416999423CD923B90178FB
:10597000032906D1436A23B1418980784E09464301
:1059800012E00189A9422ED9406A13E001F007F81C
:105990000346401C25D0022B25D3206800F58050FB
:1059A000406998421FD9AD1B2068B5421946EDD217
:1059B000FFF710FDE360B0B121680A4601F58051A0
:1059C0004B895B09B5FBF3F3184420614889400912
:1059D000B5FBF0F100FB115002EB401060610020BC
:1059E00070BD012070BD022070BD0000084910B5D7
:1059F0000B5C002253B901220A540A1801EB800003
:105A0000127A40680168104688470246104610BD69
:105A1000604F002030B4054C231804EB80001B7A43
:105A2000406804691846A44630BC6047604F0020B7
:105A300030B4054D2C1805EB8000247A4068856849
:105A40002046AC4630BC6047604F0020044A111825
:105A500002EB8000097A406842680846104700005F
:105A6000604F002030B4054D2C1805EB8000247ADF
:105A70004068C5682046AC4630BC6047604F002097
:105A800010B5044600F05DFB00280DD1204603F060
:105A900065F8002808D104F58054A06AFFF788FD56
:105AA000002801D10021216010BD2DE9FC41002515
:105AB0009046074604464E1E11E001AB012269469E
:105AC000404600F077FA019801280AD19DF80000BD
:105AD0000D2804D06D1C04F8010B0A2801D0B54232
