:020000040800F2
:10C80000505E002025CA00085717010835090108A5
:10C8100055170108B7DD0008992C01080000000039
:10C82000000000000000000000000000C92801080E
:10C830001FDE00080000000069190108CB2801086C
:10C840003FCA00083FCA00083FCA00083FCA0008A4
:10C850003FCA00083FCA00083FCA00083FCA000894
:10C860003FCA00083FCA00083FCA00083FCA000884
:10C87000B9DD0008C5DD00083FCA00083FCA00084E
:10C88000D1DD0008DDDD00083FCA00083FCA00080E
:10C890003FCA00083FCA00083FCA000821DE00085E
:10C8A0003FCA00083FCA00083FCA00083FCA000844
:10C8B0003FCA00083FCA00083FCA00083FCA000834
:10C8C0003FCA00083FCA00083FCA000811260108F5
:10C8D0003FCA00083FCA00088D2C01083FCA000863
:10C8E0003FCA00083FCA00083FCA00083FCA000804
:10C8F0003FCA00083FCA00083FCA00083FCA0008F4
:10C900003FCA0008B11B01083FCA00083FCA00081F
:10C910003FCA00083FCA00083FCA00083FCA0008D3
:10C920003FCA00083FCA00083FCA0008E9DD000806
:10C9300000F002F800F067F80AA090E8000C8244CA
:10C940008344AAF10107DA4501D100F05CF8AFF2A7
:10C95000090EBAE80F0013F0010F18BFFB1A43F0DD
:10C9600001031847A48A0000C48A0000103A24BFBB
:10C9700078C878C1FAD8520724BF30C830C144BF44
:10C9800004680C6070470000002300240025002686
:10C99000103A28BF78C1FBD8520728BF30C148BF22
:10C9A0000B607047692900F03D81642900F03A81ED
:10C9B000752900F037816F2900F0CE81782900F0C9
:10C9C000F3810368DB0928BF41F08001632900F08F
:10C9D0001885E32900F03E85002070471FB59DE8CB
:10C9E000030000F057FC00F039FC04000020002197
:10C9F00008F05AFC401C606000F07AFD1FBD10B5C5
:10CA000000F0DFFD10BD00F017FE1146FFF7E6FF56
:10CA100007F014FB00F0E0FF03B4FFF7F0FF03BCE6
:10CA200001F018F80948804709480047FEE7FEE78B
:10CA3000FEE7FEE7FEE7FEE7FEE7FEE7FEE7FEE7CE
:10CA400004480549054A064B70470000552901086E
:10CA500031C90008703E0020505E0020604E00206A
:10CA6000604E002010B500F0F9FB001D10BD00BFA6
:10CA70003988000070B5064600F0ECFB056806F149
:10CA80000B0020F00704B4429CBF002070BD2B4671
:10CA90006A68BAB11068A04210D304F10801884254
:10CAA0003CBF5068586007D3516810194160116845
:10CAB000091B016058601460101D70BD1346526858
:10CAC000002AE7D12146284600F0D0FB0028DED11D
:10CAD00070BD70B50446051F00F0BCFB0068002C5B
:10CAE00014BF446870BD002C18BFAC423CBF204648
:10CAF0006468F8D301680A18AA4218BF456003D1D8
:10CB00002A6805461144016028684119A1421CBFEA
:10CB10006C6070BD6168696021680844286070BD00
:10CB20000FB4044910B503AA029800F077FC10BCBA
:10CB30005DF814FB683D00200FB41CB5074B06AA36
:10CB40007B4469460090059800F039FC0020694656
:10CB500000F048FC1CBC5DF814FB0000A1080000BC
:10CB600070B5044685690068C10601D5302600E02D
:10CB70002026C00707D070BDD4E901213046904778
:10CB8000206A401C20626D1EF6D570BD70B504464B
:10CB900085690078C00707D170BDD4E90121202044
:10CBA0009047206A401C20626D1EF6D570BD096852
:10CBB0004A0501D540B27047C905FCD500B270479F
:10CBC00009684A0501D5C0B27047C905FCD580B2D5
:10CBD000704770B50C460546012A05D028788006B6
:10CBE00000D5EA69002302E0012305E05B1C9342C3
:10CBF00002D2E05C0028F9D1A869E618C01AA86141
:10CC0000286A184428622846FFF7AAFF04E0D5E9FD
:10CC1000012114F8010B9047B442F8D32846FFF7DE
:10CC2000B5FF70BD2DE9F041064600241068752956
:10CC3000314616A510D0FFF7BAFF002802DA4042AD
:10CC400013A507E031688A0701D512A502E049075C
:10CC500004D511A5012401E0FFF7B2FF00210A224B
:10CC600006F1240709E0B0FBF2FCB0FBF2F302FB93
:10CC70001C00303078541846491C0028F3D1234654
:10CC80002A463046BDE8F04100F03ABB0000000003
:10CC90002D0000002B000000200000002DE9FF5FA8
:10CCA00015468A460446DFF8AC80F8440027D8E9E8
:10CCB00000103E46CDE9001010E03AF816106A4622
:10CCC00002A800F0D3FB411C07D02178890603D5C8
:10CCD000E269391891420DD80744761C2078800605
:10CCE00002D5E069B84205DDAE42E6DB3AF816004F
:10CCF0000028E2D1A069C01BA0612046FFF730FFE9
:10CD0000D8E90010CDE90010002017E03AF818101B
:10CD10006A4602A800F0AAFBB0F1FF3F81460BD0A3
:10CD200000250DF1080B05E0D4E901211BF80500F1
:10CD300090476D1C4D45F7D308F10100B042804685
:10CD4000E4DB206A384420622046FFF71FFFBDE87D
:10CD5000FF9F00001687000070B50446214610684A
:10CD6000FFF72EFF002104F1240505E000F0070283
:10CD70003032C0086A54491C0028F7D120680023CB
:10CD800007A2050707D5800600D421B1E069012379
:10CD900004A2401EE0612046BDE8704000F0B0BA39
:10CDA000000000003000000070B504460D4621462A
:10CDB0001068FFF705FF2188090502D50F4A7A445C
:10CDC00002E00E4A7A440E32002104F1240305E009
:10CDD00000F00F060009965D5E54491C0028F7D14B
:10CDE00020780023000704D5702D02D009B102235A
:10CDF00011322046BDE8704000F082BA0A86000079
:10CE00002DE9F05F894604464FF0000ADFF874B15F
:10CE1000FB44C0F820A02046E1688847002874D071
:10CE2000252806D0D4E901219047206A401C2062C1
:10CE3000F1E700265F462046E1688847202805463E
:10CE400007DB312D05D2781910F8200C08B1064304
:10CE5000F1E7B00701D526F00406C4F81CA00027AE
:10CE6000C4F818A02A2D09D0284605F026FF38B3AB
:10CE700004EB8708303DC8F8185019E059F8041B36
:10CE8000204604EB87029161E1688847012F05463F
:10CE900018D1E069002820DA26F020061DE0D8F835
:10CEA000180000EB800005EB40003038C8F818008F
:10CEB0002046E1688847054605F0FFFE0028EED1D0
:10CEC000012F0AD02E2D08D12046E16888477F1C0B
:10CED0000546022F46F02006C4DBA069002803DACD
:10CEE000404246F00106A061F00701D026F010068E
:10CEF0006C2D0BD0682D09D04C2D39D06A2D35D032
:10CF0000742D35D07A2D33D016E038E0E1682F4605
:10CF100020468847B842054609D16C2F26D04FF4E9
:10CF20008060E168064320468847054604E06C2F90
:10CF30001AD04FF4807006430DB3A5F141001928B3
:10CF400002D8203546F400664A4629462046266027
:10CF50004E46FFF727FD80B101280BD0F61D26F0C5
:10CF6000070000F1080956E74020E4E78020D8E7F1
:10CF70000020D6E706F104094DE7284652E7206A6B
:10CF8000BDE8F09FE085000030B505460B462A4617
:10CF900013F8014B12F8010B08B1A042F8D01CB1F4
:10CFA000002802D06D1CF1E7284630BD40EA01039D
:10CFB000024630B59B0710D14FF0013400E008C2A3
:10CFC00008C91D1B9D4315EAC41FF8D013F0FF01CB
:10CFD00002F8011B0DD01B0AF8E711F8013B002BEA
:10CFE00002F8013B05D011F8013B002B02F8013B90
:10CFF000F3D130BD10B5431C02E010F8011B71B134
:10D000008107FAD14FF0013202C88C1A8C4314EA1E
:10D01000C211F9D0C01A0A0603D0C01E10BDC01A32
:10D0200010BD0A0401D0801E10BD0902FCD0401EB4
:10D0300010BD421E12F8013F002BFBD111F8013B3D
:10D04000002B02F8013BF9D17047032A40F23080EF
:10D0500010F0030C00F0158011F8013BBCF1020F39
:10D06000624498BF11F801CB00F8013B38BF11F8BA
:10D07000013BA2F1040298BF00F801CB38BF00F8D1
:10D08000013B11F0030300F02580083AC0F008804E
:10D0900051F8043B083A51F804CBA0E80810F5E732
:10D0A000121D5CBF51F8043B40F8043BAFF3008015
:10D0B000D20724BF11F8013B11F801CB48BF11F88A
:10D0C000012B24BF00F8013B00F801CB48BF00F85A
:10D0D000012B704710B5203AC0F00B80B1E8185012
:10D0E000203AA0E81850B1E81850A0E81850BFF452
:10D0F000F5AF5FEA027C24BFB1E81850A0E81850F1
:10D1000044BF18C918C0BDE810405FEA827C24BF44
:10D1100051F8043B40F8043B08BF7047D20728BFD2
:10D1200031F8023B48BF11F8012B28BF20F8023B21
:10D1300048BF00F8012B70474FF000020429C0F0EF
:10D14000128010F0030C00F01B80CCF1040CBCF139
:10D15000020F18BF00F8012BA8BF20F8022BA1EB8B
:10D160000C0100F00DB85FEAC17C24BF00F8012B70
:10D1700000F8012B48BF00F8012B70474FF0000268
:10D1800000B5134694469646203922BFA0E80C50BD
:10D19000A0E80C50B1F12001BFF4F7AF090728BF98
:10D1A000A0E80C5048BF0CC05DF804EB890028BF14
:10D1B00040F8042B08BF704748BF20F8022B11F03D
:10D1C000804F18BF00F8012B704700004FF0013C62
:10D1D00050F8042B51F8043B9A4221D1A2EB0C03E6
:10D1E000934313EACC1317D150F8042B51F8043BA6
:10D1F0009A4215D1A2EB0C03934313EACC130BD143
:10D2000050F8042B51F8043B9A4209D1A2EB0C03CD
:10D21000934313EACC13DBD04FF00000704700BFFC
:10D22000D01A01BAB1FA81F101F0180122FA01F025
:10D23000CB40C1F12001DBB2C0B2C01A2CFA01F31D
:10D24000D11A914311EAC311E6D170477047704774
:10D250007047000000487047183E002000487047A3
:10D26000303E0020704770477047704738B504461D
:10D270000A4600206946AFF30080002808BF38BD89
:10D2800002460099204600F015F9012038BD012022
:10D2900000F0CAB9F8B5AFF30080054600200C468F
:10D2A000102000BF0646A819A0420DD93246694693
:10D2B0000020AFF30080070008BF00F0B5F9009828
:10D2C000A04218BF0546C419FFF7C4FF0560074612
:10D2D000F01D20F007004619284600F00AF8B44275
:10D2E00008BFF8BDA21B31463868BDE8F84000F021
:10D2F000E1B800210160C0E90110704710207047BB
:10D300002DE9F0470D4699469246044600F124085F
:10D310000168880604D5E06921F01001216000E071
:10D320000120A84201DD471B00E00027A1697A190E
:10D3300002EB0900081AA0612078C00602D420463A
:10D34000FFF70EFC002608E0D4E901211AF80600D8
:10D350009047206A401C761C20624E45F4DB207802
:10D36000C0060AD52046FFF7FBFB06E0D4E9012101
:10D3700030209047206A401C2062381EA7F1010728
:10D38000F4DC07E0D4E9012118F805009047206A91
:10D39000401C2062281EA5F10105F3DC2046FFF7A2
:10D3A000F5FB2078000602D50220BDE8F0870120B9
:10D3B000FBE7000001694A1C02610878704700B56C
:10D3C0008FB0CDE901310021059105497944CDE9BE
:10D3D000031011466846FFF713FD0FB000BD0000B3
:10D3E000E5FFFFFF0A6802F8010B0A60704710B5FD
:10D3F000436913B1AFF3008001E0FFF7EAFB0120BE
:10D4000010BD127800F124010A7000224A70012236
:10D41000EDE711684FF0FF32E9E70000074B70B508
:10D420000D467B44FFF7CBFF0446284600F05CF82E
:10D4300010B14FF0FF3070BD204670BDBB680000DA
:10D4400010B5436913B1AFF3008001E0FFF726FC8C
:10D45000012010BD128800F1240182840022C284C0
:10D460000122EDE711684FF0FF32E9E770B516468B
:10D470000C460546FFF7F6FA036893F80101012808
:10D4800006D0FF2C0FD8185D68B101202C7070BD3C
:10D49000D3F807013246214603F207130344284616
:10D4A000BDE8704018474FF0FF3070BD004870472E
:10D4B000103E0020034640688C46002818BF884272
:10D4C0003CBF03464068F8D318681844884207D028
:10D4D0000CF1030020F00700001D411A521A01460A
:10D4E000081D0A60FFF7F5BA007B00F08000704766
:10D4F00010B542485421FFF741FE41485421FFF73F
:10D500003DFE40485421FFF739FE3F493B483C4A25
:10D510003F4B08603D490A603A491960531C036556
:10D52000481C1065012008653B48344A39A17844FD
:10D5300000F0B6F920B9384878440A3800F05AFAB1
:10D5400037482F4A35A1784400F0AAF920B9344869
:10D5500078440A3800F04EFA32482A4A2FA178441B
:10D5600000F09EF920B92F4878440A3800F042FABA
:10D5700040232248DC000021224600F06DF920B152
:10D5800025487844543800F035FA1D482246402397
:10D59000002100F061F920B121487844543800F0AE
:10D5A00029FA184822461023002100F055F90028D6
:10D5B00006D01C487844BDE81040563800F01ABA2E
:10D5C00010BD104870B5006D20F001040B4800F04C
:10D5D000DDF90B4800F0DAF90A4800F0D7F909E064
:10D5E000206D20F00105204600F0D0F92046FFF71D
:10D5F00070FA2C46002CF3D170BD0000143D0020C1
:10D60000683D0020BC3D00204C0000205000002060
:10D6100054000020720000007A7E000077000000B5
:10D62000697E0000597E000010B500F0EBF9BDE8FE
:10D63000104000F0DAB970477546FFF737FFAE4685
:10D6400005006946534620F00700854618B020B50E
:10D65000FFF7F6F9BDE820404FF000064FF0000755
:10D660004FF000084FF0000B21F00701AC46ACE88A
:10D67000C009ACE8C009ACE8C009ACE8C0098D46F7
:10D6800070472DE9F04705460C46C86820F4201085
:10D6900040F48000C860800602D5084600F0B3FA66
:10D6A000E06841F282014FF0FF390140022903D0C6
:10D6B000204600F051FAB5E000F42041B1F5004FEA
:10D6C0000FD1C00306D56168E06A884200D80846D9
:10D6D000606006E02069E0626060606905F000FB60
:10D6E000A061A0680022EEB200280DDAE1688B0587
:10D6F0000AD4C043A06041F490302260E0606068CA
:10D70000411C61600670A5E0E0689046226040F42C
:10D710000050E060206968BB606905F0E7FA012706
:10D7200004F12405A0B1A08910F4407F08D0E0697D
:10D73000FFF7A0F9206118B1E06840F4006016E03E
:10D74000E7612561E06820F4407040F480600EE0FD
:10D75000E069FFF78FF900282061F1D0E06840F41C
:10D76000006010F4407FE06002D140F48070E0601F
:10D7700020696060E06825696FF0010AC1051FD566
:10D780006168E06A884200D80846411B04D02246FE
:10D79000284600F0EBF9F0BBE068010203D5E56232
:10D7A000C4E9015854E0691CE1626160E16940F438
:10D7B0008030491EC4E9021030462E70BDE8F08763
:10D7C000010202D500F480320AE06068411C616009
:10D7D0000670E0680A2E40F48030E06006D0002237
:10D7E000E16A6068814203D90B4602E00122F7E753
:10D7F0000346A7895B1B7F0503D4E7699F4200DDD1
:10D80000E2B1814200D80146E5620F1AC4E901582D
:10D81000002B09DD00E005E022461946284600F00D
:10D82000A5F908B14846C9E747B1A069E562656056
:10D83000C01BA061E06840F01000E060E0680002FA
:10D8400008D56168A069E562491B08446560A0616C
:10D850005046B3E73046B1E770B5C468A50713D0AA
:10D86000650211D4B2F5807F09D0B2F5007F06D0F1
:10D87000B2F5806F08D1012300F1240106E05D1E9E
:10D880006FF07F46B54201D3012070BD0161C361D5
:10D89000416024F470611143C160002070BD00003C
:10D8A0002DE9F0410C4607461646104600F06EF88A
:10D8B0002078611C61280AD0722802D077283CD1D8
:10D8C00002E00125002405E00225042402E00824EA
:10D8D00048F2020511F8010B2B2806D0622809D066
:10D8E00011F8010C74280AD00BE045F0030544F050
:10D8F0000204EFE745F0040544F00104EAE744F0D0
:10D9000010043846214605F0FDF9411C15D00021D0
:10D91000316171604FF40071F560F1617061200751
:10D9200004D530460222002100F09AF8306D40F014
:10D93000010030653046BDE8F0810020FBE72DE9AD
:10D94000F0410D460646104C206DC10704D0410839
:10D9500004D020F00104F7E722460EE05420FFF740
:10D9600089F807000ED0206D47F0010108435421CB
:10D9700020653846FFF702FC3A4629463046BDE8A6
:10D98000F0418DE70020D6E7143D00202DE9F04757
:10D9900004464FF000094FF0FF37C568D4E904860C
:10D9A000A80707D0204600F00BF9304605F08CF9A7
:10D9B000002802DA3846BDE8F087280502D540463F
:10D9C000FFF787F84C212046FFF7D8FB206D20F0A9
:10D9D000010020654846EEE710B50446AFF300802D
:10D9E0002046BDE81040FFF717B8002801D000F02E
:10D9F00031B8704710B500F041F9BDE81040FFF7AD
:10DA0000F4BF000010B5012805D0002103A000F0EC
:10DA10001BF9012010BD09A1F8E700005349475246
:10DA2000544D454D3A204F7574206F6620686561EE
:10DA300070206D656D6F7279000000003A204865B6
:10DA40006170206D656D6F727920636F7272757091
:10DA50007465640001491820ABBEFEE72600020091
:10DA60002DE9F041044616460D464769007B8007C4
:10DA70002ED0384605F03AF950BB3EB3012E02D005
:10DA8000022E25D104E0204600F019F905441DE0DE
:10DA9000384605F025F9E168002841F01001E16001
:10DAA00005DA204600F058F80120BDE8F081C903EE
:10DAB0000BD56268E16A914200D81146A26911440F
:10DAC0002269891A814200DD08460544002D01DAE9
:10DAD0000220EAE7E16A6068E268814206D29103C7
:10DAE000E06203D522F4003141F01002A66900275C
:10DAF000AE4213DCE16A814201D90B4600E00346E5
:10DB000003EB060C2369ACEB030CAC4506DD81424C
:10DB100001D98C4600E084469C4505D1A76027606A
:10DB200042F02000A5620DE0AD1BE669AE1B81420C
:10DB3000A66000D90846C01A281A206058196060EB
:10DB400022F0200003490840E060002084F848707B
:10DB5000ABE70000BFCFD7FFC16821F4001141F04F
:10DB60008001C16000218160016070472DE9F047AC
:10DB7000814614460E464FF0FF383248D568576943
:10DB8000054209D03846A16905F0EAF8002811DB02
:10DB90002C48C0430540E5602B463246494638468E
:10DBA00005F0E1F8A16920F00042B21A1144002802
:10DBB000A16103D02046FFF7CFFF4046BDE8F087C4
:10DBC00070B504460569C06A6168884200D8084695
:10DBD000E16821F42011E160C90312D5A84208D000
:10DBE0002246411B2846FFF7C1FF10B14FF0FF301E
:10DBF00070BD0020E562C4E90150E06820F4803087
:10DC0000E060002070BD10B50446C06820F0200020
:10DC1000E060A16AA06988420DD02046FFF7D0FFDE
:10DC2000E06820F4405040F01000E060A06AA0617D
:10DC30002069E062606044F24001E0688843E0608F
:10DC400010BD00001000020070B505460C460A2009
:10DC500000E06D1C00F02CF835B128780028F8D1D0
:10DC600002E0641C00F024F814B120780028F8D1F8
:10DC7000BDE870400A2000F01BB8000010B5014656
:10DC800002A0FFF7E1FF012010BD000053494752F9
:10DC9000545245443A2052656469726563743A206F
:10DCA00063616E2774206F70656E3A20000000007B
:10DCB00008B569468DF800000320ABBE08BD10B55D
:10DCC0000146C268900703D0900607D5886A0AE02B
:10DCD00000F016F801210160881E10BD8B694868AC
:10DCE00018440B69C01A91F848301BB191F84910DB
:10DCF000401A10BD1103FCD50028FADD401E10BDEE
:10DD000000487047103E002070470000014601485F
:10DD100001F03ABD8031002010B5044801F046FD05
:10DD2000042801D0012010BD002010BD803100204A
:10DD300010B500F015F8012801D0012010BD0748EA
:10DD400001F046FE040006D14FF40061034801F0E3
:10DD5000C1FB00B10124204610BD0000803100202D
:10DD600008B501208DF800009DF8000008BD0000F6
:10DD700038B50024009313460A460146034801F0D3
:10DD8000E3FE00B10124204638BD000080310020B0
:10DD90007047000038B50024009313460A46014638
:10DDA000034801F0C5FF00B10124204638BD000042
:10DDB000803100207047FEE7014800F015B90000EF
:10DDC000C03B0020014800F00FB90000043C0020D7
:10DDD000014800F009B90000A0320020014800F01D
:10DDE00003B90000483C0020014800F0FDB80000E5
:10DDF0007C3B002030B590F840500124AC40C56B0E
:10DE00006C60046863604368102B036803D09960FA
:10DE10000068C26030BD9A600068C16030BD704764
:10DE2000202000F095BA72B6FEE70022AFF3008022
:10DE300030B50E4B054601205C7A012C15D8587A76
:10DE400000241C54587A03EB800045605D7A03F18E
:10DE500008002A54587A421C5A72303008703A200E
:10DE600048702F208870CC70002030BD083D002005
:10DE700010B590F821100022022905D004218163F9
:10DE800080F82020012010BD01680B6823F00E03EC
:10DE90000B6001680B6823F001030B6090F84030C1
:10DEA000C46B012101FA03F3636080F8211080F84C
:10DEB0002020104610BD00002DE9F05F90F82110E1
:10DEC0000024022903D004218163012485E0016834
:10DED0000A6822F00E020A6001680A6822F0010254
:10DEE0000A603F4E3E4FB215DFF8F4C0DFF8F09005
:10DEF000DFF8ECA0DFF8E8B0DFF8E4E00168783F95
:10DF000013011502ACF1640CA9F15009AAF13C0A05
:10DF1000ABF1280BAEF1140E4FF48018B14227D9A3
:10DF2000B9420ED0614512D049451DD0514518D097
:10DF3000594518D0714501D1424615E0294EB142EC
:10DF400001D1012210E0274E1436B14201D1102236
:10DF50000AE0244E2836B14206D0224A3C32914291
:10DF600001D11A4600E02A461E49091F0A602BE02B
:10DF7000B94213D0614517D0494522D051451DD033
:10DF800059451DD0714501D142461AE0B14202D136
:10DF90004FF0807215E0134EB14201D1012210E022
:10DFA000104E1436B14201D110220AE00D4E28362F
:10DFB000B14206D00B4A3C32914201D11A4600E0F0
:10DFC0002A46074980394A60012180F82110002142
:10DFD00080F82010416B01B188472046BDE8F09FD2
:10DFE00080000240080402402DE9F05FC16B0A681E
:10DFF00001680B68046C4FF0040808FA04F8844DBB
:10E00000844E854FDFF814C2DFF81492DFF814A2B3
:10E01000DFF814B2DFF814E218EA020F65D05FEA05
:10E02000437862D50A68920603D40A6822F0040293
:10E030000A60DFF8F0814FF48062016808F114088B
:10E0400013011402414524D9A9420DD0B1420FD089
:10E05000B9421AD0614515D0494515D0514501D175
:10E06000120312E0594501D104220EE0714501D19D
:10E0700040220AE06D4D1435A94206D06B4A283281
:10E08000914201D11A4600E022466749091F0A6001
:10E0900029E0A94213D0B14215D0B94220D0614540
:10E0A0001BD049451BD0514502D14FF4800217E0E7
:10E0B000414502D14FF0806212E0594501D104225E
:10E0C0000EE0714501D140220AE0584D1435A942B5
:10E0D00006D0564A2832914201D11A4600E0224623
:10E0E0004B4908394A60C16A71E04FF0020808FAEA
:10E0F00004F818EA020F70D05FEA83786DD50A68D9
:10E10000920606D40A6822F00A020A60012180F809
:10E110002110DFF810814FF40072016808F1140833
:10E1200013011402414524D9A9420DD0B1420FD0A8
:10E13000B9421AD0614515D0494515D0514501D194
:10E14000120312E0594501D102220EE0714501D1BE
:10E1500020220AE0354D1435A94206D0334A283230
:10E16000914201D11A4600E022462F49091F0A6058
:10E1700029E0A94213D0B14215D0B94220D061455F
:10E180001BD049451BD0514502D14FF4001217E076
:10E19000414502D14FF0007212E0594501D10222EF
:10E1A0000EE0714501D120220AE0204D1435A9422C
:10E1B00006D01E4A2832914201D11A4600E022467A
:10E1C000134908394A60002180F82010816A00292B
:10E1D0001CD0BDE8F05F0847FFE70825A5401542C1
:10E1E00014D01A0712D50A6822F00E020A6090F8BD
:10E1F0004020C36B012101FA02F25A60816380F86A
:10E200002110002180F82010016BE0E7BDE8F09FAD
:10E21000080002401C00024030000240440002405E
:10E22000580002406C000240080402401C040240F6
:10E2300030B560B11A4B026814219A4209D2194BC9
:10E240001344B3FBF1F18900016417490AE001208E
:10E2500030BD134B5B421344B3FBF1F18900016401
:10E260000F490839C163022180F82110136843F671
:10E27000F0718B43F0E901142143D0E902452C43AE
:10E28000214304692143446921438469214319439B
:10E29000116000214163012242770177084630BDB9
:10E2A00008040240F8FFFDBF0000024070B50446BC
:10E2B00090F82000002501280CD0012084F82000CF
:10E2C00094F821600020012E06D084F82000022559
:10E2D000284670BD022070BD022684F82160A0632C
:10E2E0002068066826F0010606602046FFF782FDDA
:10E2F000E06A00282068016802D041F00E0106E0C3
:10E3000021F0040101602068016841F00A01016008
:10E310002068016841F001010160D9E770B5044649
:10E3200000F02CF90546601C02D004480078044433
:10E3300000F024F9401BA042FAD370BD3000002049
:10E34000202802D1014901204870704708000020B0
:10E35000044910B50A68024202D00860FFF7F0FFD6
:10E3600010BD0000140401402DE9F84FDFF8C891FA
:10E37000002409F1040A0AF1040B23460F270BF1CC
:10E38000040ED1E00125A54006EA0502AA4276D195
:10E39000DFF8A8C14E68A6EB0C0866452BD00DDC53
:10E3A000032E34D005DC36B3012E19D0022E2FD126
:10E3B0001BE0112E16D0122E2AD119E0B8F5881FB5
:10E3C00019D006DCB8F5803F15D0B8F5801F1FD1F5
:10E3D00011E0B8F5001F0ED0B8F5041F18D10AE0FF
:10E3E000CB6815E0CB681B1D12E0CB6808330FE04B
:10E3F000CB680C330CE08B682BB1012B4FF008037A
:10E4000003D0456104E0042302E0056100E000233D
:10E41000FF2A01D8064601E000F104064FEA840510
:10E4200001D9A5F12005D6F8008007FA05FC28EAF5
:10E430000C0803FA05F548EA0508C6F800804D689F
:10E44000ED0070D53E4DAE6946F00106AE61AD6996
:10E4500024F0030605F0010500953A4D06EB050C86
:10E46000DCF80850A607360F07FA06F825EA080573
:10E47000DFF8D480404503D14FF0000825E052E09A
:10E48000DFF8C880404502D14FF001081DE0DFF8F9
:10E49000C080404502D14FF0020816E0DFF8B4809A
:10E4A000404502D14FF003080FE0DFF8AC80404553
:10E4B00002D14FF0040808E0DFF8A080404502D107
:10E4C0004FF0050801E04FF0060808FA06F848EAA0
:10E4D0000508CCF808804D68D9F80060ED034D467A
:10E4E00001D5164300E096432E604D68DAF80060CF
:10E4F000AD03554601D5164300E096432E604D68A6
:10E50000DBF80060ED025D4601D5164300E096435E
:10E510002E604D68DEF80060AD02754601D51643E9
:10E5200000E096432E60641C0A681646E2407FF4C1
:10E5300029AFBDE8F88F0000000401400000111071
:10E54000001002400000014000080140000C0140A2
:10E55000001001400014014000180140001C01405F
:10E56000C26821EA02030A4043EA0241016170479E
:10E570000AB1016170470904FBE7000001488068A7
:10E58000704700003000002070B5040025D094F8DA
:10E590003D00002520B984F83C50204600F04EF99B
:10E5A000242084F83D002068016821F00101016009
:10E5B0002068016841F4004101602068016821F48D
:10E5C0000041016000F0B8FB4D4A6168914201D8FA
:10E5D0004C4900E04C49884201D2012070BD4B49B2
:10E5E0002368B0FBF1F15E6826F03F060E435E60E3
:10E5F0006368934206D94FF4967359434FF47A7384
:10E60000B1FBF3F12368491C1E6A26F03F06314333
:10E6100019626168914210D84900401EB0FBF1F2C6
:10E62000521CC2F30B02042A01D2042022E0B0FBE8
:10E63000F1F0401CC0F30B001CE0A268F2B301EB48
:10E64000C10303EB0116431EB3FBF6F35B1C43F45B
:10E6500080431B0549D092B301EBC10202EB0111CB
:10E66000401EB0FBF1F0401CC0F30B0040F48040B2
:10E6700040F400402168CA694CF6FF739A43104386
:10E68000C861D4E9071001432068026822F0C00283
:10E6900011430160D4E9030101432068826848F214
:10E6A000FF339A4311438160D4E90501084321688F
:10E6B000CA6822F0FF021043C86001E00EE016E0D5
:10E6C0002068016841F0010101602564202084F880
:10E6D0003D00256384F83E50002070BD01EB4106EB
:10E6E000431EB3FBF6F35B1CB3E70120C2E701EB6B
:10E6F0004101401EB0FBF1F0401CC0F30B00B7E736
:10E70000A086010080841E0000093D0040420F00E9
:10E710002DE9F84F1F4690468A460446DDF82890BA
:10E72000FFF72CFF054694F83D0020287FD11923E0
:10E73000012240492046009502F088F9002876D150
:10E7400094F83C00012872D0012084F83C00206835
:10E750000168C90703D1016841F001010160206827
:10E76000016821F400610160212084F83D0010203F
:10E7700084F83E0000262664C4F824806785608DF6
:10E7800020852D48E0622B464A465146204602F03D
:10E79000E9F890B9206841698069009036E02A461E
:10E7A0004946204602F0D1F950B1206C042804D12A
:10E7B0002068016841F4007101600120BDE8F88F14
:10E7C000606A216800780861606A401C6062618D3F
:10E7D000491E6185218D491E89B2218522685369B0
:10E7E000DB435B070BD451B100781061606A401CB9
:10E7F0006062608D401E6085208D401E20852A4607
:10E800004946204602F0FCF80028CED1208D002891
:10E81000C5D154F83D0B016841F40071016020201E
:10E8200004F81E09E67766770020C7E7FFE70220B5
:10E83000C4E70000020010000000FFFF10B586B022
:10E840000021009101910291039100680F498842D3
:10E850001AD10F4CA06940F00800A061A069694678
:10E8600000F008000490C0200090122001900320C6
:10E8700003900848FFF778FDE06940F40010E0617C
:10E88000E06900F40010049006B010BD0054004090
:10E8900000100240000C014070B5040011D0216846
:10E8A0004CF6CC400860216845F255500860D4E928
:10E8B000000141602168A0688860FFF75FFE05469F
:10E8C0000DE0012070BD00BFFFF758FE401B272858
:10E8D00005D92068C068800701D0032070BD20687A
:10E8E000C0688007F0D121684AF6AA20086000209D
:10E8F00070BD00684AF6AA21016000207047000040
:10E90000024881680278114481607047300000201D
:10E91000074810B5016841F010010160032000F0C4
:10E9200073F80F2000F006F800F024F8002010BD66
:10E930000020024070B50D4D04464FF47A712878DE
:10E94000B1FBF0F00A490968B1FBF0F001F084FD79
:10E9500048B9102C07D200222146501E00F034F88E
:10E9600000206C6070BD012070BD000030000020F0
:10E970003C0000200B4808B5816941F0010181612C
:10E98000816901F001010091C16941F08051C161CB
:10E99000C06900F0805000900348416821F0E061B8
:10E9A000416008BD0010024000000140002809DB62
:10E9B00000F01F02012191404009800000F1E02099
:10E9C000C0F8001170470000F0B40E4B1B680C46F5
:10E9D000C3F30223C3F10705042D00D90425191D33
:10E9E000072901D2002300E0DB1E012606FA05F10B
:10E9F000491E214099409E40761E16403143F0BC8E
:10EA000004F04BB90CED00E0064900F0070208687D
:10EA10004FF6FF03184040EA0220034A1043086003
:10EA2000704700000CED00E00000FA0501490120EC
:10EA30000862704700000E4210B52CA401461DCCA0
:10EA400086B08DE81D002DA02D4C0068049000209C
:10EA500004292FD00BDC01292FD0022928D100F066
:10EA60007BF96168C1F38131491C49001EE0082926
:10EA700020D010291CD161682268D20118D5C1F3B9
:10EA80008342C9031DF8020009D5616804AAC1F3D5
:10EA90004041515C1B4AB2FBF1F1484301E01A4985
:10EAA00048436168490203D440000321B0FBF1F000
:10EAB00006B010BD00F060F9FAE7226AC2F3012146
:10EAC000012903D1920701D5C803F1E7022905D135
:10EAD000626A920702D549F64040E9E70329E7D187
:10EAE00021688903E4D50948E2E700000203040530
:10EAF000060708090A0B0C0D0E0F1010010200008A
:10EB0000001002400024F40000093D0048E8010024
:10EB10002DE9F84305460078354CC00754D0E0692C
:10EB20000026C00008D4E06940F08050E061E06950
:10EB3000012600F0805000902E480168C90512D4CB
:10EB40000168804641F480710160FFF717FD0746B8
:10EB500005E000BFFFF712FDC01B642823D8D8F8DA
:10EB60000000C005F6D5206A10F4407021D0A988B5
:10EB700001F4407181421CD0206A1F49012220F417
:10EB800040700A6000220A602062C00711D0FFF7BF
:10EB9000F5FC074641F2883808E000BFFFF7EEFCBD
:10EBA000C11B414502D90320BDE8F883206A8007D4
:10EBB000F4D5206A696820F44070084320621EB1D1
:10EBC000E06920F08050E0612878800705D5606812
:10EBD000A96820F44040084360602878C00605D545
:10EBE0006068696920F48000084360600020DBE70A
:10EBF0000010024000700040400442427047000094
:10EC00002DE9F0470F46050061D0434E306800F013
:10EC10000700B84209D2306820F00700384330605E
:10EC2000306800F00700B84251D128683B4C81079A
:10EC300012D5400703D5606840F4E0606060287832
:10EC4000000703D5606840F4605060606068A968A0
:10EC500020F0F000084360602878C00728D068687A
:10EC6000012810D02168022810D0890700292EDA47
:10EC7000616821F0030101436160FFF77FFC80467A
:10EC800041F288390DE021688903EFE78901EDE75A
:10EC9000FFF774FCA0EB0801494502D90320BDE849
:10ECA000F0876068696800F00C00B0EB810FEFD16D
:10ECB000306800F00700B8420BD9306820F0070038
:10ECC00038433060306800F00700B84201D00120BE
:10ECD000E5E72878400705D56068E96820F4E0603A
:10ECE000084360602878000706D56068296920F429
:10ECF000605040EAC100606000F03EF86168084A78
:10ED0000C1F30311515CC840064908600648006819
:10ED1000FFF710FE0020C2E7002002400010024072
:10ED2000D45201083C000020340000200149012099
:10ED3000C8647047000042420448054900684968B9
:10ED4000044AC1F30221515CC84070473C000020D6
:10ED500000100240E452010804480549006849686F
:10ED6000044AC1F3C221515CC84070473C000020F6
:10ED700000100240E452010813A185B00FC98DE8CC
:10ED80000F0015A0154A00680490516801F00C00AE
:10ED9000042804D0082804D0114805B07047114851
:10EDA000FBE7C1F38343C9031DF8030009D551688C
:10EDB00004AAC1F34041515C0A4A5043B0FBF1F050
:10EDC000EBE709494843E8E7020304050607080999
:10EDD0000A0B0C0D0E0F1010010200000010024073
:10EDE00000127A000024F40000093D0010B5044C24
:10EDF000A068000603D5FFF701FF8020A07210BDB8
:10EE0000001002402DE9F84F040070D02078C04D6A
:10EE1000C00749D06868C0F38100012807D068683E
:10EE2000C0F38100022809D16868C00306D52868AC
:10EE3000800339D560680028E7D035E06068B0F518
:10EE4000803F0BD010B1B0F5A02F11D0286820F46E
:10EE500080302860286820F4802002E0286840F490
:10EE600080302860606890B1FFF788FB06460AE0B2
:10EE7000286840F480202860F0E700BFFFF77EFBA1
:10EE8000801B642873D828688003F7D50CE0FFF74F
:10EE900075FB064605E000BFFFF770FB801B64288A
:10EEA000F0D828688003F7D420789A4E80074FF076
:10EEB00001094FF0000839D5686810F00C0F07D031
:10EEC0006868C0F38100022809D16868C00306D4CD
:10EED0002868800714D52069012808D110E020692E
:10EEE000B0B1C6F80090FFF749FB074605E00AE11C
:10EEF000FFF744FBC01B0228C4D828688007F7D559
:10EF00002868616920F0F80040EAC10028600DE03F
:10EF1000C6F80080FFF732FB074604E0FFF72EFB40
:10EF2000C01B022823D828688007F7D42078000760
:10EF30002CD57948A169D9B1C0F80090FFF71EFB24
:10EF4000074604E0FFF71AFBC01B02280FD8686AC7
:10EF50008007F7D571484FF4FA510068B0FBF1F023
:10EF6000009000BF0098411E0091FAD20EE080E0B0
:10EF7000C0F80080FFF702FB074604E0FFF7FEFA47
:10EF8000C01B022875D8686A8007F7D4207840072C
:10EF900060D5E8690027C00008D4E86940F08050D7
:10EFA000E861E869012700F0805000905C48016842
:10EFB000C90513D40168834641F480710160FFF7ED
:10EFC000DDFA824606E000BFFFF7D8FAA0EB0A00A0
:10EFD00064284ED8DBF80000C005F5D5E0680128AC
:10EFE0000AD008B1052813D0286A20F00100286251
:10EFF000286A20F0040002E0286A40F0010028623C
:10F00000E06841F2883B98B1FFF7B8FA82460BE01E
:10F01000286A40F004002862EEE700BFFFF7AEFA6E
:10F02000A0EB0A0159455AD8286A8007F6D50CE0AA
:10F03000FFF7A4FA824605E0FFF7A0FAA0EB0A0169
:10F0400059454CD8286A8007F6D41FB1E86920F0EA
:10F050008050E861E06988B36968C1F381010229E1
:10F0600044D00228C6F8608004D0FFF787FA04462F
:10F0700038E034E0FFF782FA074604E0FFF77EFA53
:10F08000C01B02282BD828688001F7D4206AB0F56D
:10F09000803F05D16868A16820F4003008436860AB
:10F0A000D4E908010843696821F4741108436860D1
:10F0B000C6F86090FFF762FA044606E025E000BF5C
:10F0C000FFF75CFA001B022809D828688001F7D5F1
:10F0D0001BE000BFFFF752FA001B022802D90320F1
:10F0E000BDE8F88F28688001F4D40EE00128F7D03D
:10F0F0006868226A00F48031914204D1616A00F4A8
:10F100007010884201D00120EAE70020E8E7000003
:10F110000010024000004242800442423C000020B5
:10F1200000700040F8B505004FF0000016460C4690
:10F13000009006D02CB100226946284600F019F84C
:10F1400008B10120F8BD287B2070E87BE070697B66
:10F150006170A97BA17056B102F010FCE07060787C
:10F1600002F00CFC6070A07802F008FCA070002097
:10F17000F8BD2DE9F04791460C465FEA00084AD0F9
:10F1800084B3D8F800004068400744D4404602F0F9
:10F1900093FC4FF461620546B0FBF2F1B0FBF2F371
:10F1A00002FB13503C23B0FBF3F0B5FBF2F66070AA
:10F1B00002FB1650B0FBF3F203FB1200A0701829FB
:10F1C00031D31820B1FBF0F7B1FBF0F200FB1210C5
:10F1D0002070404602F069FC411C04D0A84202D9CC
:10F1E000461B02E017E04FF0FF36A7EB071000EBDD
:10F1F0004000C0EB001005EBC0152946404602F068
:10F20000AAFC40B9701C01D0711900E0314640469B
:10F2100002F08DFC10B10120BDE8F0873946404670
:10F2200002F0B7FB00E02170B9F1000F0BD020789D
:10F2300002F0A4FB2070607802F0A0FB6070A07860
:10F2400002F09CFBA0700020E6E7000070B504000F
:10F2500003D0607C002610B105E0012070BD26744B
:10F26000204600F043F802206074204600F010F9B8
:10F27000042578BB204602F0E3FB58BB20684168B8
:10F2800021F007014160A06820B11748016821F012
:10F29000010101601448001F0168A26821F4607137
:10F2A000114301606068411C04D10120FFF7C4FBD9
:10F2B00080B1401E21688A6822F00F0242EA1042A3
:10F2C0008A602168CA6860F30F02CA60204602F0B3
:10F2D000D1FB08B16574C0E7E67301206073A073C9
:10F2E0006074002070BD0000306C004008B50068FC
:10F2F000084988420DD1FFF799FB0748C16941F0E1
:10F300000061C161C069054900F000600090012002
:10F31000086008BD00280040001002403C04424242
:10F320002DE9F0410D4604003BD0C5B3207C0128F7
:10F330003AD04FF0010884F8108002206074E87819
:10F3400072B302F012FBE073687802F00EFB607398
:10F35000A87802F00AFBA073C2B2617BE07B02F0E6
:10F36000BBFB20732870204602F0A6FB4FF46161BE
:10F37000B0FBF1F1002518292DD91822B1FBF2F1CB
:10F38000A1EB011101EB4101C1EB011100EBC11631
:10F390003146204602F0DFFB0427C8B90BE000E04D
:10F3A00004E00120BDE8F0810220FBE7E07368780B
:10F3B0006073A878CFE7204602F077FB411C0AD0A3
:10F3C000B04208D206490144204602F0B0FB10B119
:10F3D00067742574E5E784F8118025740020E1E75F
:10F3E000805101002DE9F0410D46040024D01DB3E9
:10F3F000207C012823D04FF0010884F810800220DF
:10F4000060742878EAB102F0B0FA4FF4616100FB51
:10F4100001F6687802F0A9FAC0EB001006EB80064E
:10F42000A87802F0A2FA35182946204602F093FB8C
:10F430000026042710BB0FE00120BDE8F081022068
:10F44000FBE74FF4616148436978C1EB011100EBC0
:10F450008100A9784518E7E72068416821F0050197
:10F460004160204602F021FB411C0AD0A84208D28C
:10F4700006490144204602F05AFB10B16774267415
:10F48000DAE784F8118026740020D6E78051010065
:10F4900070B504000AD02068416821F0080141607D
:10F4A000FFF76CF805464FF47A7608E0012070BD4E
:10F4B000FFF764F8401BB04201D9032070BD2068FB
:10F4C00040680007F4D5002070BD10B5FEF71CFCA5
:10F4D00010BD00002DE9FE430446002603200D4622
:10F4E00084F83400606C03285ED0B5F5805F5BD093
:10F4F0004FF4006700204FF08068BD421FD1814665
:10F50000009001900021206802F04FFB800113D48D
:10F510006946204602F0BAFE07000DD1019840036B
:10F5200034D5B4F850000104206802F079FB0700DC
:10F5300002D10221206823E0A06B384328E01DB1EE
:10F54000A06B40F0006023E0814600900190002114
:10F55000206802F02AFB8001EED46946204602F0C2
:10F5600095FE0700E8D10198C0030FD5B4F850000C
:10F570000104206802F054FB0700DDD1002120685F
:10F5800002F09BFB0700D7D14F46D5E74746D3E7AC
:10F59000A063A06B144F4FF0010848B12068876347
:10F5A00084F8348001260EE0A06B40F08050EFE735
:10F5B000211DD4E9050C0EC9CDE90050CDF808C0D5
:10F5C000206802F0FBFA4FF40071206802F05CFB47
:10F5D00028B121688F63A16B0143A163012684F8E0
:10F5E00034803046BDE8FE83FF05400070470000D0
:10F5F000F0B5426E920F0A70426EC2F383624A7097
:10F60000426EC2F301628A70426E120CCA70B0F888
:10F610006420120A0A7190F864204A71826E120DF9
:10F62000CA80826EC2F303420A72B0F86820C2F345
:10F63000C0324A72B0F86820C2F380328A72B0F8E1
:10F640006820C2F34032CA72B0F86820C2F30032B8
:10F650000A7300264E73426C4FF40075012462B1A8
:10F66000012A3AD0026847499163816B41F0805189
:10F67000816380F834400120F0BDB0F86820C36E8B
:10F680009205120D42EA93720A61C26EC2F3C2621F
:10F690000A75C26EC2F302624A75C26EC2F342526A
:10F6A0008A75C26EC2F38242CA75C26EC2F3C2329A
:10F6B0000A760A69521C42650B7E03F007039B1C05
:10F6C0009A4042650B7A03F00F0704FA07F383654B
:10F6D0005B0A5A43C0E917250EE090F86820C36E14
:10F6E0009206920A42EA13420A610A69521C920285
:10F6F0004265C0E91652056630F86C2FC2F38032BD
:10F7000001F8192F0288C2F3C6124A70027802F07B
:10F710007F028A704268D20FCA704268C2F3417297
:10F720000A714268C2F382624A714268C2F383522C
:10F730008A714268C2F34052CA710E724268C2F3C3
:10F7400000424A728288C2F3C0328A728288C2F34F
:10F750008032CA728288C2F340320A738288C2F34E
:10F7600000324A738288C2F381228A738288C2F38C
:10F770000122CA730079C0F3460008744C7400205B
:10F78000F0BD0000FF054000426C0A60826C4A60D8
:10F79000C26C8A60026DCA60426D0A61826D4A6104
:10F7A000C26D8A61006EC8610020704770B5044662
:10F7B000B0F8500000250104206802F088FB18B161
:10F7C000A16B0143A16304E00021206802F0EDF980
:10F7D0000546C5F3432070BDF8B5056B04460068C7
:10F7E000416B09041BD5290719D5D4E90A56002E07
:10F7F00014D00027206802F0FBF905F8010B010A7C
:10F8000005F8011B010C05F8021B000E361F7F1CBA
:10F8100005F8010C082FEDD3C4E90A56F8BD416B79
:10F820004FF00006C9054FF0010744D53902816346
:10F830002068C16B4CF23A129143C1632068C16ADF
:10F8400021F00101C16228071DD515F0220F09D052
:10F85000206802F06DFB28B1A16B0143A163204633
:10F86000FFF7C4FE216840F23A50886384F8347090
:10F870002663A80703D0204600F052FAF8BD2046C0
:10F8800000F052FAF8BD2806FCD5A80609D5206874
:10F8900002F04EFB28B1A16B0143A1632046FFF7A4
:10F8A000A5FEA807EED12068C16A21F00801C16257
:10F8B00084F83470E3E7416B490424D5290722D545
:10F8C000D4E90856002EDDD05FF0000715F8010BD3
:10F8D000009015F8011B361F40EA0120009015F832
:10F8E000021B40EA0140009015F8011C40EA01604B
:10F8F00000906946206802F08EF97F1C082FE5D33E
:10F90000C4E90856F8BD416B11F03A0FFAD0416BCB
:10F91000890703D5A16B41F00201A163416B09077F
:10F9200003D5A16B41F00801A163416B890603D5A2
:10F93000A16B41F02001A163416BC90603D5A16B06
:10F9400041F01001A16340F23A7181632068C16BFC
:10F9500040F23A329143C163206802F0E9FAA16BA8
:10F960000843A063280706D584F834702663204630
:10F97000FFF73CFEF8BD2806FCD515F0300F0CD083
:10F98000E16B11484863E06BFEF796FA0028F1D06E
:10F99000E06BBDE8F84002F057BCA8070CD0216C22
:10F9A0000A484863206CFEF787FA0028E2D0206CF2
:10F9B000BDE8F84002F026BCA66384F834702663E4
:10F9C0002046FFF782FDF8BD492201080522010803
:10F9D00070B504000ED094F83400002518B92577CE
:10F9E000204600F04BF8032084F83400204600F055
:10F9F0000BF808B1012070BDA5632563012084F8D0
:10FA00003400002070BD0000FEB5002504467620BD
:10FA10000095CDE9015029460B460A46206802F0C0
:10FA2000CDF828BB134E46F8A05F206802F0D8F846
:10FA300001253560204602F00DFD28B184F83450D0
:10FA4000A16B0143A16313E0204602F08CFC002867
:10FA5000F4D14FF40071206802F016F9002808D0A4
:10FA6000226805499163A16B0143A16384F8345076
:10FA70000120FEBD00003042FF054000F0B585B01A
:10FA800000260546009601960296039600682849CE
:10FA900088424AD12749486940F4806048614869F2
:10FAA00000F480600490886940F0100088618869E3
:10FAB00000F010000490886940F020008861886997
:10FAC000022400F0200004904FF4F850CDE9000427
:10FAD0000327694603971848FEF746FC0420CDE942
:10FAE0000004694603971548FEF73EFC154C144880
:10FAF000C4E900068020C4E9026080002061800023
:10FB0000C4E905068000E0612046FEF791FB08B1DC
:10FB1000FEF789F92C64EC630022114631206562FE
:10FB2000FEF752FF3120FEF741FF05B0F0BD0000A7
:10FB3000008001400010024000100140001401400C
:10FB4000440402407C3B00202DE9F04F87B09B46E7
:10FB500016460D460446FEF711FD00903DB194F89F
:10FB60003400012807D0A06B40F000500DE0A06BDE
:10FB700040F0006009E00020A063E26D06EB0B019D
:10FB8000914204D9A06B40F00070A06386E003218D
:10FB900084F834102168C862616C012900D07602B3
:10FBA0004FF0FF3101914FEA4B2102914FF00108D4
:10FBB00003AA902102278146CDF8188082E88202AC
:10FBC00001A9206801F0DBFFBBF1010F05D9276314
:10FBD0003146206802F0ECF805E0C4F83080314688
:10FBE000206802F0FEF8DFF834A130B12268C2F8D4
:10FBF00038A0A16B0143A1634CE0029E1EE0406B64
:10FC0000000413D596B10027206801F0F1FF05F834
:10FC1000010B010A05F8011B010C05F8021B000E7F
:10FC2000361F7F1C05F8010C082FEDD3FEF7A6FC4C
:10FC30000099411A109881421DD2E0B12068426BB0
:10FC400040F22A310A42DAD0416BC90509D5BBF12D
:10FC5000010F06D9616C032903D002F069F900286D
:10FC6000C4D12068416B09071AD5C0F838A0A06B31
:10FC700040F0080050E02168C1F838A0A06B40F0C7
:10FC80000040A06384F83480C4F83090032007B0AB
:10FC9000BDE8F08F84F83480C4F830900120F6E796
:10FCA000416B890705D5C0F838A0A06B40F0020071
:10FCB00032E0416B89061BD5C0F838A0A06B40F03C
:10FCC000200029E001F094FF05F8010B010A05F876
:10FCD000011B010C05F8021B000E05F8010C361F74
:10FCE000FEF74CFC0099411A109881420ED268B17F
:10FCF0002068416B890201D5002EE3D1216840F2D2
:10FD00003A50886384F834800020C0E72168C1F845
:10FD100038A0A06B40F00040A063BBE7FF054000A7
:10FD200010B5FEF735F810BD10B5FEF743F810BD5D
:10FD30002DE9F04F8DB09B4616460D460446FEF762
:10FD40001DFC0A903DB194F83400012807D0A06B47
:10FD500040F000500DE0A06B40F0006009E0002092
:10FD6000A063E26D06EB0B01914204D9A06B40F059
:10FD70000070A0637AE0032184F834102168C8621F
:10FD8000616C012900D076024FF0FF3103914FEAF8
:10FD90004B2104919021CDE905104FF00109CDE9E7
:10FDA0000709824603A9206801F0E9FEBBF1010FB3
:10FDB00006D9202020633146206802F0D3F805E000
:10FDC000102020633146206802F0E5F85FEA000861
:10FDD00006D0216840488863A06B40EA080071E0C3
:10FDE000049E27E0406B40041CD5DEB15FF00007A5
:10FDF00015F8010B009015F8011B361F40EA012091
:10FE0000009015F8021B40EA0140009015F8011C13
:10FE100040EA016000906946206801F0FCFE7F1C0A
:10FE2000082FE5D3FEF7AAFB0A99411A16988142DA
:10FE300020D2F8B12068416B40F21A321142D1D081
:10FE4000416BC90523D5BBF1010F20D9616C032992
:10FE50001DD002F06DF8D0B122681F499163A16BEB
:10FE60000143A16384F83490C4F830A001200DB0A0
:10FE7000BDE8F08F216818488863A06B40EA08004D
:10FE8000A06384F83490C4F830A00320EFE7206822
:10FE9000416B090705D510498163A06B40F008004C
:10FEA00010E0416B890705D50B498163A06B40F0D9
:10FEB000020007E0416BC90606D507498163A06BC4
:10FEC00040F01000A063CDE740F23A51816384F81E
:10FED00034900020CBE70000FF054000704790F809
:10FEE0005100704738B50446006842688168C943CC
:10FEF0004B0606D5CB0704D1D3435B0601D4216C56
:10FF000005E08B0708D4D3431B0605D4616C01B010
:10FF10002046BDE8304008478B0601D54B0646D445
:10FF2000D3439B0643D44B060AD494F85130032B99
:10FF30003ED0636D43F004036365C3688368009338
:10FF4000890609D4616D41F0010161658168009104
:10FF5000016821F040010160606D002827D0206811
:10FF6000416821F0E0014160012084F851009007D0
:10FF700022D02068416821F003014160104DE06CFF
:10FF800040B14563E06CFDF797FF18B1606D40F03C
:10FF900040006065A06C002809D04563A06CFDF7A7
:10FFA0008BFF002803D0606D40F04000606538BDD5
:10FFB000C1688068009038BD2046FFF78FFF38BDCC
:10FFC0001D26010870B5040009D0606A002540B103
:10FFD00025616561A56294F8510040B10CE00120F3
:10FFE00070BD6068B0F5827FF4D0E561F2E784F817
:10FFF0005050204600F040F8022084F8510020685C
:020000040801F1
:10000000016821F040010160A088218900F482701C
:1000100001F404410843A18901F400610843217CF3
:1000200001F002010843217D01F001010843218B09
:1000300001F400710843217F01F03801084394F86E
:10004000201001F080010843218D01F40051084384
:1000500021680860A069042101EA10402168486015
:100060002068C16921F40061C1616565012084F8DF
:100070005100002070BD00002DE9F04186B0002441
:100080000646009401940294039400682D49884226
:1000900055D12D48816941F480518161816901F414
:1000A00080510491816941F0040181618069274D8B
:1000B00000F004000490A020009002200190032092
:1000C000039069462846FEF74FF94020CDE9000429
:1000D000694628460294FEF747F91E4D1C484FF02A
:1000E0008008C5E90004C5E902482C614FF4405777
:1000F0006C61C5E906472846FEF79AF808B1FDF796
:1001000092FEF5646E621248134D143001C5102042
:10011000A5E81101104845F810496C61C5E906478A
:10012000FEF786F808B1FDF77EFEB56400221146A1
:1001300023206E62FEF748FC2320FEF737FC06B052
:10014000BDE8F0810030014000100240000801408D
:100150001C000240C03B0020043C00202DE9F0417F
:10016000044600268068042318B96568B5F5827FC7
:100170000ED094F85050012D13D0012784F8507000
:1001800094F851C00025BCF1010F0DD0022654E0B7
:1001900084F851302046BDE8F04113460A4600F08D
:1001A00059B80220BDE8F08171B16AB184F85130CC
:1001B0006565A163A287E28725646564A586E586F7
:1001C000B0F5004F02D00BE0012636E02068016850
:1001D00021F0400101602068016821F48041016044
:1001E000E16C1848C862E16C17488862E16C1748F6
:1001F0000863E06C4563E38F2168A26B0C31E06C0F
:10020000FEF754F838B1606D40F0100060650126CB
:1002100084F8517011E020680168490603D4016830
:1002200041F0400101602068416841F020014160D7
:100230002068416841F00101416084F85050304627
:10024000B0E700004F2601086D2601082D260108A1
:10025000704770472DE9F041044690F850000026A1
:1002600001280DD0012784F8507094F85100002522
:10027000D4F804C001280FD0BCF5827F0AD102E077
:100280000220BDE8F081D4F808C0BCF1000F01D114
:10029000042801D0022660E049B342B33BB394F88E
:1002A0005100042802D0052084F8510065652163BF
:1002B000A386E386A263A387E3872564656494F835
:1002C0005100042815D0E16C2648C8622648E16C2C
:1002D0008862E16C25480863E06C4563E38F216820
:1002E000A26B0C31E06CFDF7E1FFE0B906E00126FE
:1002F00033E0E16C1E48C8621E48E8E720684168A8
:1003000041F001014160A06CC562A06C8562A06CE7
:100310000563A06C4563E38E2268216B0C32A06CF0
:10032000FDF7C4FF38B1606D40F010006065012634
:1003300084F8517011E020680168490603D401680F
:1003400041F0400101602068416841F020014160B6
:100350002068416841F00201416084F85050304605
:100360008FE70000632601083B2701082D260108BE
:100370004F2601086D2601082DE9F041044690F84A
:1003800050000026012809D0012784F8507094F805
:1003900051000025012804D002264EE00220BDE8CD
:1003A000F08189B182B1032084F851006565216331
:1003B000A286E286A56365642564A587E587A068B3
:1003C000B0F5004F02D00BE0012636E0206801684E
:1003D00021F0400101602068016841F48041016022
:1003E000A16C1848C862A16C17488862A16C1748B4
:1003F0000863A06C4563E38E2268216B0C32A06C0D
:10040000FDF754FF38B1606D40F0100060650126C3
:1004100084F8517011E020680168490603D401682E
:1004200041F0400101602068416841F020014160D5
:100430002068416841F00201416084F85050304624
:10044000ADE7000059260108D72601082D2601082E
:10045000704770477047704710B5401EB0F1807FFD
:1004600001D3012010BD4FF0E02460610F2160171F
:1004700002F013FC0020A06107202061002010BDC5
:1004800038B5044690F83E0020281CD181B17AB1DD
:1004900094F83C00012816D0012084F83C00206329
:1004A000204602F0BBFB002803D1216B012901D0BB
:1004B000012038BD21680A684A680092CA6842F083
:1004C0001002CA6038BD022038BD000070B50D466C
:1004D00000681C49884233D11B4C1C482646E16900
:1004E000A161F6694A1940F2DC5330449A4212D9AC
:1004F000A1F2DC5149428EB232461549FCF7A5FD06
:100500000020A0611248AA1B811915460F48FCF76C
:100510009CFDE56106E02A460D49FCF796FDA069C1
:100520002844E0610A494FF4FA72A1F18800FFF70C
:10053000A7FF074844380068016821F00401016002
:1005400070BD00000044004008000020D8340020A6
:10055000E432002070470000F8B5026804461068D5
:10056000D168536910F00F0F4FF0000553D003F01E
:10057000010601F4907737435FD0C20705D0CA0562
:1005800003D5226C42F001022264420705D5DA0746
:1005900003D0226C42F002022264820705D5DA07FA
:1005A00003D0226C42F004022264020707D501F056
:1005B0002002324303D0226C42F008022264226CF3
:1005C000002A34D0800604D5880602D5204602F0E1
:1005D0006DFA20684069216CC0F38010090700D4CF
:1005E00030B3204602F041FA2068416949061BD524
:1005F000416921F040014161A06BA8B158494163B4
:10060000A06BFDF759FC002811D0A06B416B01B025
:10061000BDE8F040084783060FD58B060DD5204670
:10062000BDE8F84002F042BA2046FFF793FFF8BD5C
:100630002046FFF78FFF2564F8BD266B2023012E8F
:1006400052D1C60650D5CE064ED5106850680090DF
:10065000506940062AD5A16B086840680004000C68
:10066000EAD0A68D8642E7D9E0858869202818D08F
:10067000D06820F48070D0602068416921F00101C9
:1006800041612068416921F04001416184F83E30B8
:1006900025632068C16821F01001C160A06BFDF7DF
:1006A000E7FBA08DE18D401A81B219E0A08DE18DAC
:1006B000401A81B2E08D0028BED00029BCD0D0689D
:1006C00020F49070D0602068426922F001024261FB
:1006D00084F83E3025632068C26822F01002C260B0
:1006E0002046FFF7F3FEF8BD05062BD50D0629D5EC
:1006F00094F83D002128F6D1A068B0F5805F01D1C3
:100700002069B0B1206A411C2162216800784860EC
:10071000E08C401E0004000CE084E4D12068C16835
:1007200021F08001C1602068C16841F04001C160D2
:10073000F8BD206A0088C0F308005060206A801C61
:100740002062E5E74006F3D54806F1D5D16820469A
:1007500021F04001D16084F83D3000F0E9F8F8BDA7
:100760006529010870B5040004D094F83D00002507
:1007700010B106E0012070BD84F83C50204600F026
:1007800023F8242084F83D002068C16821F400513A
:10079000C160204602F0E6F92068016921F4904129
:1007A00001612068416921F02A0141612068C16826
:1007B00041F40051C1602564202084F83D0084F894
:1007C0003E00002070BD00002DE9F04186B00024FD
:1007D0000646009401940294039400682D498842CF
:1007E00055D12D48C16941F40031C161C16901F49D
:1007F00000310491816941F0040181618069274DD4
:1008000000F00400049004200090022001900320D6
:10081000039069462846FDF7A7FD0820CDE90004AE
:10082000694628460294FDF79FFD1E4D1C484FF077
:100830008008C5E90004C5E902482C614FF440571F
:100840006C61C5E906472846FDF7F2FC08B1FDF7E3
:10085000EAFAB5636E621248134D143001C51020D8
:10086000A5E81101104845F810496C61C5E9064733
:10087000FDF7DEFC08B1FDF7D6FA756300221146DC
:1008800026206E62FEF7A0F82620FEF78FF806B04D
:10089000BDE8F08100440040001002400008014023
:1008A0006C000240A0320020483C00207047704796
:1008B00070B5044690F83D00202830D169B362B38A
:1008C00094F83C0001282AD0012084F83C002162E1
:1008D000A284E28400252564212084F83D00636B16
:1008E00010489862636B1048D862636B0F481863B6
:1008F000606B134645632668606B321DFDF7D6FCBE
:1009000021686FF04000086084F83C50206841691D
:1009100041F080014161002070BD012070BD0220C6
:1009200070BD0000332A0108612A010875290108F9
:1009300070477047FEE701684A69D24352050FD4F9
:100940006FF480624A61002140F8301F2022427318
:100950008173026942F00402026101730120704751
:1009600000207047F8B50446C06A1E460D4617467B
:10097000082807D0012805D010F5803F02D0206B51
:10098000122804D12068016841F480710160134687
:1009900000224FF001112046009600F057F840B1B8
:1009A00020680068C00502D54FF400702064032061
:1009B000F8BD2069B0F5804F0ED00620216800EA0E
:1009C000D51040F0F000086133463A460B49204606
:1009D00000F070F878B902E005F0FE0000E0E8B23F
:1009E00021680861054933463A46891F204600F0D0
:1009F00061F80028DCD00120F8BD000008000100EB
:100A000070B516460D4604460DE02046FFF793FFED
:100A100008B1012070BD681C05D0FDF7AFFD801B3B
:100A2000A84207D835B120684069C0434007ECD4DC
:100A3000002070BD002044F8300F20216173A073A6
:100A4000216941F0200121612073E2E72DE9F0479F
:100A50001E4690460D460446C1F30747DDF8209038
:100A600008E0701C06D0FDF789FDA0EB0900B0423C
:100A70000FD876B12068012F18D0806925EA0000D0
:100A80000004000C14D000214145EAD00020BDE84C
:100A9000F087002044F8300F20216173A073216992
:100AA00041F02001216120730120F0E74069E5E772
:100AB0000121E9E72DE9F0479A4691460E460446A2
:100AC00000254FF02008C1F3074725E02068406962
:100AD000C043400514D42068016841F400710160EE
:100AE00021686FF480604861256384F83D8084F854
:100AF0003E50206C40F00400206484F83C501FE01D
:100B0000B9F1FF3F08D0FDF739FDA0EB0A014945D7
:100B10000CD8B9F1000F09D02068012F13D08069DB
:100B200026EA00000004000C0BD0CFE744F8305F49
:100B300084F80D80A573206940F0200020612573A2
:100B40000120BDE8F0874069EAE770B516460D461A
:100B500004460DE02046FFF7EEFE08B1012070BD0F
:100B6000681C05D0FDF70AFD801BA84207D835B1E7
:100B700020684069C0430006ECD4002070BD00200E
:100B800044F8300F20216173A073216941F02001E6
:100B900021612073E2E7000007490968C9070AD00C
:100BA000054980390968C90705D04FF060410A68D6
:100BB000002AFCD008707047800E00E0F8B50446AB
:100BC00041F080008DF8000016461D46A1880022E5
:100BD0002068FDF7CDFC01226946A069FFF7CCFB38
:100BE000A069FFF77CF90128FAD12A463146A069AD
:100BF000FFF7C2FBA069FFF772F90128FAD1A188BB
:100C000001222068FDF7B4FCF8BD70B50C4605461E
:100C1000012100F08FF8024644B1012C0BD0032CC7
:100C20000FD0052C13D0062C17D01BE0002002F0AB
:100C3000F802E86116E0012002F0F802521CE861B7
:100C400010E0032002F0F802D21CE8610AE005205F
:100C500002F0F802521DE86104E0062002F0F802FA
:100C6000921DE8612846BDE87040012100F087B977
:100C700010B504460021FFF7C8FF0121204600F00F
:100C800059F840F080020121204600F078F9204612
:100C9000216A00F0D8F894F82A10204600F003F9F1
:100CA00094F82B10204600F0E5F823220C21204672
:100CB00000F065F9204600F010F994F82410204661
:100CC00000F0F5F8FF221F21204600F058F994F8B3
:100CD000250094F82610000100EB4100C2B21D214E
:100CE000204600F04CF9208D2021020A204600F019
:100CF00046F994F828202121204600F040F94021AF
:100D0000204600F017F840F03F024021204600F056
:100D100036F901212046FFF778FF0120E0614221EA
:100D2000204600F007F8122802D04FF4CA7010BD18
:100D3000C82010BD0EB501F07F018DF8081001210B
:100D40000A46009101AB02A900F003F89DF80400E7
:100D50000EBD2DE9F0410E461546044681881F461A
:100D6000DDF8188000680022FDF702FC2A463146B3
:100D7000A069FFF701FBA069FFF7B1F80128FAD1DC
:100D800042463946A069FFF7E9F9A069FFF7A7F8DD
:100D90000128FAD1A1882068BDE8F0410122FDF7C1
:100DA000E7BB2DE9F04100250E46074614462846CC
:100DB000294601E03154401CA042FBDB01213846AA
:100DC000FFF723FF12213846FFF7B4FF40061FD577
:100DD000FF221221384600F0D2F813213846FFF7DF
:100DE000A9FF054610213846FFF7A4FF02460D2152
:100DF000384600F0C4F8AC4200D22546002405E095
:100E000000213846FFF796FF3055641CAC42F7DBF3
:100E100005213846FFF7F9FE2846BDE8F08110B5F8
:100E20000446818980680022FDF7A2FB0A20FDF7B5
:100E300075FAA1890122A068FDF79AFBBDE8104070
:100E40006420FDF76BBA70B50546C8044411C4F3BD
:100E500007420621284600F092F8C4F30722072132
:100E6000284600F08CF8E2B22846BDE87040082120
:100E700000F085B82D2901D22D2105E0F02901D9F6
:100E8000F02106E0782904D805222D3991FBF2F1F2
:100E900003E00A221E31B1FBF2F1C9B22031CAB21D
:100EA0000B2100F06CB80A46092100F068B870B553
:100EB0000C4605460C2901DD0C2402E0072C00DA63
:100EC00007241E21FFF736FF64F31F10C2B2284625
:100ED000BDE870401E2100F052B810B504461E2136
:100EE000FFF728FF40F007022046BDE810401E2112
:100EF00000F045B80521FFF788BE2DE9F0410F4607
:100F00001E46144680460121C569FFF77EFE0E216C
:100F10004046FFF70FFF02460D21404600F02FF834
:100F200022462221404600F02AF823463A46002174
:100F30004046FFF743FE03214046FFF766FEFDF7FC
:100F40001DFB044612214046FFF7F4FE00070BD5B7
:100F5000FF221221404600F012F829464046FFF7D2
:100F600054FE0120BDE8F081FDF708FB001BB042F4
:100F7000E8D329464046FFF748FE0020F2E70EB5C9
:100F800041F080018DF8081001218DF804200A46F7
:100F9000009101AB02A900F001F80EBD2DE9F0416E
:100FA0000E461546044681881F46DDF81880006805
:100FB0000022FDF7DDFA2A463146A069FFF7DCF989
:100FC000A069FEF78CFF0128FAD142463946A06994
:100FD000FFF7D2F9A069FEF782FF0128FAD1A188B4
:100FE0002068BDE8F0410122FDF7C2BA70B58CB0AF
:100FF000684603F02FF92C2269462548FCF76AF869
:101000002348244902228161234940F2F71402C097
:10101000202120F8041B21494FF4CA7602C0028027
:1010200041600821018140F2B1124261072202763B
:10103000427601228276FF2282776422C277818300
:10104000E51E1348FFF7EBFE1148FFF711FEC82815
:1010500003D0B0420ED112A00FE016A004F070F839
:101060000B488030FDF745FC0CB00948BDE87040E6
:10107000FFF740BFA042E4D111A004F061F804489A
:101080008030FDF736FC2846FDF748F9D9E7000027
:10109000E030002004320020001001400014014024
:1010A0004C4F5241204E4F5420464F554E440D0A4E
:1010B000000000004C4F5241204F4B0D0A00000031
:1010C0004C4F524120554E415641494C41424C45AE
:1010D0000D0A00001D4808B5416941F00101416158
:1010E000416901F001010091416941F00201416152
:1010F0004069002200F00200009011460C20FDF72C
:1011000063FC0C20FDF752FC002211460D20FDF778
:101110005BFC0D20FDF74AFC002211461020FDF774
:1011200053FC1020FDF742FC002211461120FDF770
:101130004BFC1120FDF73AFC002211463B20FDF745
:1011400043FCBDE808403B20FDF730BC00100240E6
:1011500010B504490448FCF768FE0249491E0870AE
:1011600010BD000029000020985301082DE9F04F20
:1011700085B0002662480096019602960396816922
:1011800041F040018161816901F040010491816970
:1011900041F010018161816901F0100104918169C0
:1011A00041F080018161816901F0800104918169D0
:1011B00041F004018161816901F0040104918169B8
:1011C00041F008018161816901F0080104918169A0
:1011D00041F480718161816901F4807104918169B8
:1011E00041F0200181618069DFF818A100F0200042
:1011F0000490002221215046FDF7BAF9DFF808914A
:10120000002202214846FDF7B3F9DFF800B10022C1
:1012100002215846FDF7ACF94FF6FF780324CDE9DB
:10122000008469463A48FDF79FF842F2DE00CDE9B6
:10123000000469465046FDF797F8CDE900846946F9
:101240003448FDF791F80125CDE90264009569461F
:1012500050460195FDF788F841F61170CDE900047C
:1012600069464846FDF780F80227CDE90075CDE9CB
:10127000027469464846FDF777F84FF02009CDE93A
:101280000095CDE9025469465046FDF76DF84FF6DA
:101290002770CDE9000469461F48FDF765F8CDE9E0
:1012A000008469461D48FDF75FF84FF6D170CDE91F
:1012B000000469465846FDF757F8CDE90075CDE9B9
:1012C000027469465846FDF74FF808208DE8C100C2
:1012D00069465846FDF748F81148CDF80090CDE929
:1012E000010769465846FDF73FF8002211461720CE
:1012F000FDF76AFB1720FDF759FB05B0BDE8F08F3D
:10130000001002400010014000080140001401409C
:1013100000180140001C0140000C01400020014069
:10132000000011101CB500241848019416490094BF
:101330000160611E41604FF480718160FDF786FF9E
:1013400008B172B6FEE78DF804408DF805408DF8BF
:101350000640002201A90D48FEF744F808B172B614
:10136000FEE701208DF800008DF801008DF80200E5
:101370008DF80340002269460448FDF7D1FF00289C
:1013800001D072B6FEE71CBD002800406C31002081
:101390000F4810B50D4901604FF482714160002182
:1013A0008160C1604FF400720161C0E9051208223A
:1013B000C0E90721416281620A21C162FEF702FE93
:1013C000002801D072B6FEE710BD000000300140D9
:1013D000043200202DE9F041A0B09348FDF789FACE
:1013E00002F08DFD6420FCF799FF02F088FD642077
:1013F000FCF794FF02F072FD6420FCF78FFF8BA0D6
:1014000002F006FE4FF47A752846FCF787FF8CA0A1
:1014100003F096FE8448FDF76CFA02F0F5FE6C00CE
:1014200038B18AA002F0F4FD2046FCF777FF02F005
:1014300055FD8BA002F0ECFD2046FCF76FFF02F09B
:101440004DFD07E002F097FD89A002F0E1FD642068
:10145000FCF764FF01218BA002F0BCFF00284FF0D5
:1014600000010846EED102F086FD89A002F0D0FD11
:101470002846FCF753FF0021084602F07CFD89A0B6
:1014800002F0C6FD2846FCF749FF8B4C012101A85C
:1014900002F0CCFC01A8FBF7ADFD88B19DF804007B
:1014A0008DF868009DF805008DF869009DF806002C
:1014B0008DF86A0001221AA9606901F017FEE5E7BC
:1014C000012001F009FD0021084602F054FD7BA037
:1014D00002F09EFD2E462846FCF720FF02F0FEFC9F
:1014E0006420FCF71BFF0021084602F044FD78A0B1
:1014F00002F08EFD7B494FF4FA72A1F18800FEF7ED
:10150000BFFF784844380068016821F00401016099
:1015100003F0BCF840F2DC58012824D04046FCF728
:10152000FDFE0021012002F026FD6FA002F070FDFB
:101530003046FCF7F3FE207850B30021012002F082
:101540001AFD6EA002F064FD4046FCF7E7FE02F0D3
:10155000C5FC0021084602F00EFD6DA002F058FD0A
:101560000227002510E001202070E6E728466D1CC8
:10157000B8420DDA0021012002F0FDFC5AA002F071
:1015800047FD3046FCF7CAFE00F0E8F80028EDD031
:1015900003F0DAFDFFF72AFD23488038FFF7AAFCA5
:1015A00045492148002209310C30FDF7E2FD42494E
:1015B0001D48002210310C30FDF7B4FD3E480930C3
:1015C0008178E17041782171007860713A4810307B
:1015D0008178A1714378E371C2782272009151A1A0
:1015E0001BA8FBF7A9FA0021084602F0C4FC1BA8BF
:1015F00002F00EFDE0780090237962794FA11BA8DC
:10160000FBF79AFA0021012002F0B5FC1BA802F0BA
:10161000FFFC4046FCF782FE02F060FCC820FCF7AD
:101620007DFE20B0BDE8F081603100202020202028
:101630004D61696E204150502020202000000000A4
:101640004D41494E2050524F470A00004E6F2053E3
:1016500044204361726420466F756E640000000090
:101660005344204361726420466F756E640000002D
:1016700020736C61766569642E747874204E462000
:1016800000000000736C61766569642E74787400E4
:10169000736C61766569642E747820466F756E642C
:1016A00000000000536C617665204964205265613A
:1016B00064696E6700000000080000202020526569
:1016C0006164696E6720446F6E6520200000000031
:1016D000202053696D205374617274696E672020F5
:1016E00000000000E432002020202020204167611B
:1016F000696E202020202020000000002020536957
:101700006D20537461727465642120200000000014
:10171000204E5450205254205265717565737420C8
:1017200000000000323025303264202D2025303278
:1017300064202D2025303264202000002020253018
:101740003264203A2025303264203A202530326439
:1017500020200000FEE7FDF749FBFEE72DE9F04100
:1017600001258EB04FEA050403F0EEFC54B1032CC2
:1017700010D0012C11D0042C12D0022C13D0052C27
:1017800038D016E052A153A003F05CFB012813D01F
:101790000124E9E74EA154A007E04DA157A004E0C1
:1017A0004BA15BA001E04AA15EA003F04BFB012826
:1017B00002D0641C062CD7DB03F0C6FC00264FF0D9
:1017C0004B086F464FEA06048DF800808DF83040D4
:1017D00001203D54401C3028FBDB3021684602F0DC
:1017E000E5FE012802D0761C0A2EEDDBFCF7C6FED2
:1017F000054614E036A150A003F024FBDCE700BF4F
:10180000FCF7BCFE431B64EB040041F2883200216C
:10181000D21A814103D200BF03F096FC52E04BA0E4
:1018200003F030FD0128EBD103F08EFC4FF47A7009
:10183000FCF774FDFCF7A2FE0646474DFCF79EFE42
:10184000831B64EB040140F6B8320020D21A8841B1
:10185000E2D395F82F000028F0D0002069462A181E
:1018600092F828200A54401C0428F8DB01AA3BA166
:10187000684603F0CFFB019802F008FD00223849CA
:101880003848FDF776FC36490022C91D3548FDF77A
:1018900049FC3349A1F109008A78C2704A78027183
:1018A0000978417100F110018A7882714A78C27119
:1018B000C9780172152909D0162907D0172905D032
:1018C000182903D000200EB0BDE8F0810120FAE70E
:1018D00031323300302E69722E706F6F6C2E6E7441
:1018E000702E6F7267000000302E64652E706F6F6F
:1018F0006C2E6E74702E6F7267000000312E69724C
:101900002E706F6F6C2E6E74702E6F7267000000F9
:10191000312E64652E706F6F6C2E6E74702E6F7228
:1019200067000000322E69722E706F6F6C2E6E741D
:10193000702E6F7267000000322E64652E706F6F1C
:101940006C2E6E74702E6F726700000053454E440B
:10195000204F4B0D0A000000D83400202169000000
:10196000110000206C3100207047010901EB81015A
:1019700000F00F0000EB4100C0B27047002102E010
:101980000A38C0B2491C0A28FAD2090740EA116095
:1019900070472DE9F04104460025C07B627BA37BA4
:1019A00042E0012A16D0032A14D0052A12D0072AB1
:1019B00010D0082A0ED00A2A0CD00C2A0AD0042AE9
:1019C00010D0062A0ED0092A0CD00B2A0AD0022ADF
:1019D0000DD028E01F2B0CD30C2A05D10122134671
:1019E000401C20E01E2B04D30123521C1BE01C2BA7
:1019F00002D203F1010316E011D183B29E0710D188
:101A00006426B3FBF6F706FB173636B94FF4C876F3
:101A1000B3FBF6F706FB17331BB91D2303E01D2BA1
:101A200001D1032201236D1C8D42BAD3D1B2E073E0
:101A30006173DAB2A27300F04FF82073BDE8F08151
:101A400070B50446FCF79AFD05464FF47A7606E039
:101A5000FCF794FD401BB04201D9032070BD206803
:101A600040688006F4D52068416841F0100141606B
:101A7000002070BD70B504460068416821F0100177
:101A80004160FCF77BFD05464FF47A7607E000BF26
:101A9000FCF774FD401BB04201D9032070BD2068E3
:101AA00040688006F4D5002070BD0168086A496A64
:101AB00089B241EA00407047006881698AB2C16911
:101AC0008BB2816989B28A4203D0C06961F31F4039
:101AD000704743EA02407047F0B56424C1EBC1038C
:101AE0000927A500072603EB01130329B3FBF7F130
:101AF00000F5FA60114401440AD2401EB0FBF4F232
:101B000001EB9001B0FBF5F0891A0844001D08E0D4
:101B1000B0FBF4F201EB9001B0FBF5F0891A084438
:101B2000801CB0FBF6F106FB1100C0B2F0BD70B531
:101B30000D4606460024FFF783FF48B93168280C9C
:101B400008623168A8B248623046FFF793FF00B1DF
:101B50000124204670BD70B50D4606460024FFF7EF
:101B60006FFF48B93168280C88613168A8B2C86134
:101B70003046FFF77FFF00B10124204670BD0A68A0
:101B800042624A688262D1E902231A43D1E90431F0
:101B90000B43C16A1A4321F0F7011143C1620020CF
:101BA0007047006800F003007047084440697047C0
:101BB0000148FDF711BE00008031002070B50DF125
:101BC000100C11439CE870002343194329434268D9
:101BD000314347F6FF639A430A434260002070BDD9
:101BE00010B5032101600220FCF798FB002010BD16
:101BF000D0F8800070470A688260D1E901231A4357
:101C0000D1E903310B43C1681A436FF30B01114350
:101C1000C160002070470968C0F88010002070473C
:101C200010B586B004463720CDE900104020029060
:101C3000002003904FF48060049069462046FFF72F
:101C4000DAFF41F288323721204600F0BDF906B0B4
:101C500010BD000010B504460A4886B00143292093
:101C6000CDE9001040200290002003904FF48060E6
:101C7000049069462046FFF7BEFF204600F05CFA5C
:101C800006B010BD0000108010B586B004461020CC
:101C9000CDE9001040200290002003904FF48060B6
:101CA000049069462046FFF7A6FF41F288321021D2
:101CB000204600F089F906B010BD10B586B0044684
:101CC0000620CDE9001040200290002003904FF440
:101CD0008060049069462046FFF78DFF41F288320C
:101CE0000621204600F070F906B010BD30B585B071
:101CF00000240546009401944FF480600294CDE9DD
:101D0000034069462846FFF776FF0B484FF4FA5127
:101D10000068B0FBF1F041F288314843401E03D225
:101D20004FF0004005B030BD696B0906F6D5C520FF
:101D3000A8632046F6E700003C00002070B585B09F
:101D400004464FF4D570009001A9082040250026D4
:101D500081E86100C001049069462046FFF74BFF0F
:101D600012484FF4FA510068B0FBF1F041F28831AB
:101D70004843401E03D24FF0004005B070BD616B78
:101D800011F0450FF5D00905F3D4606B400701D57C
:101D9000042003E0606BC00702D00120A063ECE7E1
:101DA000606B400600D5A5633046E6E73C000020A6
:101DB00010B586B004461220CDE9001040200290F4
:101DC000002003904FF48060049069462046FFF79E
:101DD00012FF41F288321221204600F0F5F806B0D9
:101DE00010BD10B586B004461120CDE9001040208A
:101DF0000290002003904FF48060049069462046D2
:101E0000FFF7F9FE41F288321121204600F0DCF89C
:101E100006B010BD10B586B004460720CDE90020FD
:101E200040200290002003904FF4806004906946A7
:101E30002046FFF7E0FE41F288320721204600F0FD
:101E4000C3F806B010BD10B586B0044600210220CC
:101E5000CDE90010C020CDE902014FF4806004906C
:101E600069462046FFF7C7FE204600F03DF906B060
:101E700010BD10B586B004460920CDE90010C02081
:101E80000290002003904FF4806004906946204641
:101E9000FFF7B1FE204600F027F906B010BD10B5DF
:101EA00086B0044600213320CDE900104020CDE962
:101EB00002010001049069462046FFF79CFE41F2B2
:101EC00088323321204600F07FF806B010BD10B5EF
:101ED00086B004460D20CDE900104020029000207D
:101EE00003904FF48060049069462046FFF783FE1C
:101EF00041F288320D21204600F066F806B010BD90
:101F000030B585B00C46054600210320CDE9001010
:101F10004020CDE902010001049069462846FFF700
:101F20006AFE22460321284600F028F905B030BD9C
:101F300010B586B0044600210C20CDE900104020E9
:101F4000CDE902010001049069462046FFF753FEE7
:101F5000034A0C21204600F037F806B010BD0000FF
:101F600000E1F50510B586B004461920CDE9001052
:101F700040200290002003904FF480600490694656
:101F80002046FFF738FE41F288321921204600F042
:101F90001BF806B010BD10B586B004461820CDE978
:101FA000001040200290002003904FF480600490C5
:101FB00069462046FFF71FFE41F28832182120466D
:101FC00000F002F806B010BD454B10B51B684FF489
:101FD000FA54B3FBF4F353435B1E02D24FF00040BC
:101FE00010BD426B12F0450FF6D01205F4D4426BCF
:101FF000520703D504218163084610BD426BD20706
:1020000002D00121816305E0C52282630269D2B258
:102010008A4201D0012010BD0021FFF7C6FD3149E1
:10202000084201D1002010BD002802DA4FF00070F4
:1020300010BD410001D5402010BD810001D5802098
:1020400010BDC10002D54FF4807010BD010102D552
:102050004FF4007010BD410102D54FF4806010BDF7
:10206000C10102D54FF4006010BD010202D54FF44A
:10207000805010BD410202D54FF4005010BD8102C6
:1020800002D54FF4804010BDC10202D54FF400408C
:1020900010BD410302D54FF4003010BD810302D5BD
:1020A0004FF4802010BDC10302D54FF4002010BDB5
:1020B000010402D54FF4801010BD410402D54FF445
:1020C000001010BD810402D54FF4800010BD000740
:1020D00002D54FF4000010BD4FF4803010BD000059
:1020E0003C00002008E0FFFD12494FF4FA52096855
:1020F000B1FBF2F141F288325143491E02D24FF056
:1021000000407047426B12F0450FF6D01205F4D430
:10211000416B490703D50421816308467047416B31
:10212000C90703D00121816308467047C521816337
:10213000002070473C0000200F494FF4FA52096814
:10214000B1FBF2F141F288325143491E02D24FF005
:1021500000407047426B12F0450FF6D01205F4D4E0
:10216000416B490703D50421816308467047C521A7
:1021700081630020704700003C00002030B5204BF8
:102180004FF4FA541B68B3FBF4F341F28834634311
:102190005B1E02D24FF0004030BD446B14F0450F7F
:1021A000F6D02405F4D4436B5B0703D50421816387
:1021B000084630BD436BDB0702D00121816303E099
:1021C0000369DBB28B4201D0012030BDC5218163A0
:1021D0000021FFF7EAFC10F4604F04D0410406D55B
:1021E0004FF4005030BD000C1080002030BD0004C2
:1021F00002D54FF4805030BD4FF4803030BD000028
:102200003C00002010B5446A40F23A5021688863CF
:102210002046FDF7CBFA012184F834100021216318
:10222000062801D0052805D12068FFF781FEA16BA3
:102230000843A063A06B0028204602D0FDF7D6F922
:1022400010BDFDF742F910BD10B5446A40F23A5096
:10225000216888632046FDF7A9FA012184F834102B
:1022600000212163062801D0052805D12068FFF749
:102270005FFEA16B0843A063A06B0028204602D03C
:10228000FDF7B4F910BDFDF720F910BD2DE9F047B9
:1022900088B00D460446FCF771F900268246009688
:1022A0000196374608212068FFF7EEFC002829D167
:1022B000B4F8500001042068FFF7B2FC002821D1D7
:1022C000401E4FF00808CDE9020830204FF0020907
